{
  "contractName": "AllocationAddressList",
  "abi": [
    {
      "constant": true,
      "inputs": [],
      "name": "getAllocationLength",
      "outputs": [
        {
          "name": "",
          "type": "uint256"
        }
      ],
      "payable": false,
      "stateMutability": "view",
      "type": "function"
    },
    {
      "constant": true,
      "inputs": [
        {
          "name": "",
          "type": "uint256"
        }
      ],
      "name": "allocationAddressList",
      "outputs": [
        {
          "name": "",
          "type": "address"
        }
      ],
      "payable": false,
      "stateMutability": "view",
      "type": "function"
    }
  ],
  "bytecode": "0x6060604052341561000f57600080fd5b6101548061001e6000396000f30060606040526004361061004c576000357c0100000000000000000000000000000000000000000000000000000000900463ffffffff1680633f352bc0146100515780634f22bcf81461007a575b600080fd5b341561005c57600080fd5b6100646100dd565b6040518082815260200191505060405180910390f35b341561008557600080fd5b61009b60048080359060200190919050506100e9565b604051808273ffffffffffffffffffffffffffffffffffffffff1673ffffffffffffffffffffffffffffffffffffffff16815260200191505060405180910390f35b60008080549050905090565b6000818154811015156100f857fe5b90600052602060002090016000915054906101000a900473ffffffffffffffffffffffffffffffffffffffff16815600a165627a7a7230582003c2fb2a18735f69baca7a203988d775a52ce7c974468ad7d0cd08aaab35637b0029",
  "source": "pragma solidity ^0.4.4;\n\ncontract AllocationAddressList {\n\n  address[] public allocationAddressList;\n\n  function getAllocationLength() public view returns (uint) {\n    return allocationAddressList.length;\n  }\n}\n",
  "sourcePath": "/Users/albertbalinski/crypto/experty/experty-tge/contracts/AllocationAddressList.sol",
  "compiler": {
    "name": "solc",
    "version": "0.4.18+commit.9cf6e910.Emscripten.clang"
  },
  "schemaVersion": "1.0.1",
  "updatedAt": "2018-01-23T09:27:20.058Z"
}