{
  "contractName": "BountyTokenAllocation",
  "abi": [
    {
      "constant": false,
      "inputs": [
        {
          "name": "_dest",
          "type": "address"
        }
      ],
      "name": "approveBountyTransfer",
      "outputs": [],
      "payable": false,
      "stateMutability": "nonpayable",
      "type": "function"
    },
    {
      "constant": true,
      "inputs": [],
      "name": "getAllocationLength",
      "outputs": [
        {
          "name": "",
          "type": "uint256"
        }
      ],
      "payable": false,
      "stateMutability": "view",
      "type": "function"
    },
    {
      "constant": true,
      "inputs": [
        {
          "name": "",
          "type": "uint256"
        }
      ],
      "name": "allocationAddressList",
      "outputs": [
        {
          "name": "",
          "type": "address"
        }
      ],
      "payable": false,
      "stateMutability": "view",
      "type": "function"
    },
    {
      "constant": false,
      "inputs": [
        {
          "name": "_dest",
          "type": "address"
        },
        {
          "name": "_amount",
          "type": "uint256"
        }
      ],
      "name": "proposeBountyTransfer",
      "outputs": [],
      "payable": false,
      "stateMutability": "nonpayable",
      "type": "function"
    },
    {
      "constant": true,
      "inputs": [],
      "name": "remainingBountyTokens",
      "outputs": [
        {
          "name": "",
          "type": "uint256"
        }
      ],
      "payable": false,
      "stateMutability": "view",
      "type": "function"
    },
    {
      "constant": true,
      "inputs": [],
      "name": "owner",
      "outputs": [
        {
          "name": "",
          "type": "address"
        }
      ],
      "payable": false,
      "stateMutability": "view",
      "type": "function"
    },
    {
      "constant": true,
      "inputs": [
        {
          "name": "",
          "type": "address"
        }
      ],
      "name": "bountyOf",
      "outputs": [
        {
          "name": "amount",
          "type": "uint256"
        },
        {
          "name": "proposalAddress",
          "type": "address"
        },
        {
          "name": "bountyState",
          "type": "uint8"
        }
      ],
      "payable": false,
      "stateMutability": "view",
      "type": "function"
    },
    {
      "constant": false,
      "inputs": [
        {
          "name": "_dest",
          "type": "address"
        }
      ],
      "name": "rejectBountyTransfer",
      "outputs": [],
      "payable": false,
      "stateMutability": "nonpayable",
      "type": "function"
    },
    {
      "inputs": [
        {
          "name": "_remainingBountyTokens",
          "type": "uint256"
        }
      ],
      "payable": false,
      "stateMutability": "nonpayable",
      "type": "constructor"
    }
  ],
  "bytecode": "0x606060405233600460006101000a81548173ffffffffffffffffffffffffffffffffffffffff021916908373ffffffffffffffffffffffffffffffffffffffff160217905550341561005057600080fd5b604051602080610a7783398101604052808051906020019091905050336000806101000a81548173ffffffffffffffffffffffffffffffffffffffff021916908373ffffffffffffffffffffffffffffffffffffffff1602179055506000809054906101000a900473ffffffffffffffffffffffffffffffffffffffff1673ffffffffffffffffffffffffffffffffffffffff163373ffffffffffffffffffffffffffffffffffffffff1614151561010757600080fd5b80600281905550506109598061011e6000396000f30060606040526004361061008e576000357c0100000000000000000000000000000000000000000000000000000000900463ffffffff168063257ef522146100935780633f352bc0146100cc5780634f22bcf8146100f5578063639bd0bf1461015857806378f8eea81461019a5780638da5cb5b146101c35780639441294314610218578063be0f27cf146102ad575b600080fd5b341561009e57600080fd5b6100ca600480803573ffffffffffffffffffffffffffffffffffffffff169060200190919050506102e6565b005b34156100d757600080fd5b6100df61041c565b6040518082815260200191505060405180910390f35b341561010057600080fd5b6101166004808035906020019091905050610429565b604051808273ffffffffffffffffffffffffffffffffffffffff1673ffffffffffffffffffffffffffffffffffffffff16815260200191505060405180910390f35b341561016357600080fd5b610198600480803573ffffffffffffffffffffffffffffffffffffffff16906020019091908035906020019091905050610468565b005b34156101a557600080fd5b6101ad6106d6565b6040518082815260200191505060405180910390f35b34156101ce57600080fd5b6101d66106dc565b604051808273ffffffffffffffffffffffffffffffffffffffff1673ffffffffffffffffffffffffffffffffffffffff16815260200191505060405180910390f35b341561022357600080fd5b61024f600480803573ffffffffffffffffffffffffffffffffffffffff16906020019091905050610702565b604051808481526020018373ffffffffffffffffffffffffffffffffffffffff1673ffffffffffffffffffffffffffffffffffffffff16815260200182600281111561029757fe5b60ff168152602001935050505060405180910390f35b34156102b857600080fd5b6102e4600480803573ffffffffffffffffffffffffffffffffffffffff16906020019091905050610759565b005b6000809054906101000a900473ffffffffffffffffffffffffffffffffffffffff1673ffffffffffffffffffffffffffffffffffffffff163373ffffffffffffffffffffffffffffffffffffffff1614151561034157600080fd5b6000600281111561034e57fe5b600360008373ffffffffffffffffffffffffffffffffffffffff1673ffffffffffffffffffffffffffffffffffffffff16815260200190815260200160002060010160149054906101000a900460ff1660028111156103a957fe5b1415156103b557600080fd5b6001600360008373ffffffffffffffffffffffffffffffffffffffff1673ffffffffffffffffffffffffffffffffffffffff16815260200190815260200160002060010160146101000a81548160ff0219169083600281111561041457fe5b021790555050565b6000600180549050905090565b60018181548110151561043857fe5b90600052602060002090016000915054906101000a900473ffffffffffffffffffffffffffffffffffffffff1681565b6000809054906101000a900473ffffffffffffffffffffffffffffffffffffffff1673ffffffffffffffffffffffffffffffffffffffff163373ffffffffffffffffffffffffffffffffffffffff161415156104c357600080fd5b6000811115156104d257600080fd5b60025481111515156104e357600080fd5b6000600360008473ffffffffffffffffffffffffffffffffffffffff1673ffffffffffffffffffffffffffffffffffffffff16815260200190815260200160002060010160009054906101000a900473ffffffffffffffffffffffffffffffffffffffff1673ffffffffffffffffffffffffffffffffffffffff1614151561056a57600080fd5b6060604051908101604052808281526020013373ffffffffffffffffffffffffffffffffffffffff168152602001600060028111156105a557fe5b815250600360008473ffffffffffffffffffffffffffffffffffffffff1673ffffffffffffffffffffffffffffffffffffffff1681526020019081526020016000206000820151816000015560208201518160010160006101000a81548173ffffffffffffffffffffffffffffffffffffffff021916908373ffffffffffffffffffffffffffffffffffffffff16021790555060408201518160010160146101000a81548160ff0219169083600281111561065c57fe5b02179055509050506001805480600101828161067891906108dc565b9160005260206000209001600084909190916101000a81548173ffffffffffffffffffffffffffffffffffffffff021916908373ffffffffffffffffffffffffffffffffffffffff1602179055505080600254036002819055505050565b60025481565b600460009054906101000a900473ffffffffffffffffffffffffffffffffffffffff1681565b60036020528060005260406000206000915090508060000154908060010160009054906101000a900473ffffffffffffffffffffffffffffffffffffffff16908060010160149054906101000a900460ff16905083565b6000809054906101000a900473ffffffffffffffffffffffffffffffffffffffff1673ffffffffffffffffffffffffffffffffffffffff163373ffffffffffffffffffffffffffffffffffffffff161415156107b457600080fd5b600060028111156107c157fe5b600360008373ffffffffffffffffffffffffffffffffffffffff1673ffffffffffffffffffffffffffffffffffffffff16815260200190815260200160002060010160149054906101000a900460ff16600281111561081c57fe5b14151561082857600080fd5b6002600360008373ffffffffffffffffffffffffffffffffffffffff1673ffffffffffffffffffffffffffffffffffffffff16815260200190815260200160002060010160146101000a81548160ff0219169083600281111561088757fe5b0217905550600360008273ffffffffffffffffffffffffffffffffffffffff1673ffffffffffffffffffffffffffffffffffffffff168152602001908152602001600020600001546002540160028190555050565b815481835581811511610903578183600052602060002091820191016109029190610908565b5b505050565b61092a91905b8082111561092657600081600090555060010161090e565b5090565b905600a165627a7a7230582046ed86c36c8b871c664ad101a974135453be861c86bdaa81264c9710ed6ef7c90029",
  "source": "pragma solidity ^0.4.4;\n\nimport \"./Ownable.sol\";\nimport \"./AllocationAddressList.sol\";\nimport \"./SplitTypes.sol\";\n\ncontract BountyTokenAllocation is Ownable, AllocationAddressList {\n\n  // This contract describes how the bounty tokens are allocated.\n  // After a bounty allocation was proposed by a signaturer, another\n  // signaturer must accept this allocation. And then it can be sent\n\n  // Total amount of remaining tokens to be distributed\n  uint public remainingBountyTokens;\n\n  // Possible split states: Proposed, Approved, Rejected\n  // Proposed is the initial state.\n  // Both Approved and Rejected are final states.\n  // The only possible transitions are:\n  // Proposed => Approved\n  // Proposed => Rejected\n\n\n  mapping (address => SplitTypes.BountyAllocationT) public bountyOf;\n\n  address public owner = msg.sender;\n\n  function BountyTokenAllocation(uint _remainingBountyTokens) onlyOwner public {\n    remainingBountyTokens = _remainingBountyTokens;\n  }\n\n\n\n  function proposeBountyTransfer(address _dest, uint _amount) public onlyOwner {\n    require(_amount > 0);\n    require(_amount <= remainingBountyTokens);\n    require(bountyOf[_dest].proposalAddress == 0x0); // we can't overwrite existing proposal\n\n    bountyOf[_dest] = SplitTypes.BountyAllocationT({\n      amount: _amount,\n      proposalAddress: msg.sender,\n      bountyState: SplitTypes.BountyState.Proposed\n    });\n    allocationAddressList.push(_dest);\n    remainingBountyTokens = remainingBountyTokens - _amount;\n  }\n\n  function approveBountyTransfer(address _dest) public onlyOwner {\n    require(bountyOf[_dest].bountyState == SplitTypes.BountyState.Proposed);\n\n    bountyOf[_dest].bountyState = SplitTypes.BountyState.Approved;\n  }\n\n  function rejectBountyTransfer(address _dest) public onlyOwner {\n    require(bountyOf[_dest].bountyState == SplitTypes.BountyState.Proposed);\n\n    bountyOf[_dest].bountyState = SplitTypes.BountyState.Rejected;\n    remainingBountyTokens = remainingBountyTokens + bountyOf[_dest].amount;\n  }\n\n}\n",
  "sourcePath": "/Users/albertbalinski/crypto/experty/experty-tge/contracts/BountyTokenAllocation.sol",
  "compiler": {
    "name": "solc",
    "version": "0.4.18+commit.9cf6e910.Emscripten.clang"
  },
  "schemaVersion": "1.0.1",
  "updatedAt": "2018-01-23T09:27:20.059Z"
}