{
  "contractName": "ERC223Token",
  "abi": [
    {
      "constant": true,
      "inputs": [],
      "name": "name",
      "outputs": [
        {
          "name": "",
          "type": "string"
        }
      ],
      "payable": false,
      "stateMutability": "view",
      "type": "function"
    },
    {
      "constant": true,
      "inputs": [],
      "name": "totalSupply",
      "outputs": [
        {
          "name": "",
          "type": "uint256"
        }
      ],
      "payable": false,
      "stateMutability": "view",
      "type": "function"
    },
    {
      "constant": true,
      "inputs": [],
      "name": "decimals",
      "outputs": [
        {
          "name": "",
          "type": "uint8"
        }
      ],
      "payable": false,
      "stateMutability": "view",
      "type": "function"
    },
    {
      "constant": true,
      "inputs": [
        {
          "name": "",
          "type": "address"
        }
      ],
      "name": "balanceOf",
      "outputs": [
        {
          "name": "",
          "type": "uint256"
        }
      ],
      "payable": false,
      "stateMutability": "view",
      "type": "function"
    },
    {
      "constant": true,
      "inputs": [],
      "name": "symbol",
      "outputs": [
        {
          "name": "",
          "type": "string"
        }
      ],
      "payable": false,
      "stateMutability": "view",
      "type": "function"
    },
    {
      "constant": false,
      "inputs": [
        {
          "name": "to",
          "type": "address"
        },
        {
          "name": "value",
          "type": "uint256"
        }
      ],
      "name": "transfer",
      "outputs": [],
      "payable": false,
      "stateMutability": "nonpayable",
      "type": "function"
    },
    {
      "constant": false,
      "inputs": [
        {
          "name": "to",
          "type": "address"
        },
        {
          "name": "value",
          "type": "uint256"
        },
        {
          "name": "data",
          "type": "bytes"
        }
      ],
      "name": "transfer",
      "outputs": [],
      "payable": false,
      "stateMutability": "nonpayable",
      "type": "function"
    },
    {
      "anonymous": false,
      "inputs": [
        {
          "indexed": true,
          "name": "from",
          "type": "address"
        },
        {
          "indexed": true,
          "name": "to",
          "type": "address"
        },
        {
          "indexed": false,
          "name": "value",
          "type": "uint256"
        },
        {
          "indexed": true,
          "name": "data",
          "type": "bytes"
        }
      ],
      "name": "Transfer",
      "type": "event"
    }
  ],
  "bytecode": "0x6060604052341561000f57600080fd5b610b5c8061001e6000396000f300606060405260043610610083576000357c0100000000000000000000000000000000000000000000000000000000900463ffffffff16806306fdde031461008857806318160ddd14610116578063313ce5671461013f57806370a082311461016e57806395d89b41146101bb578063a9059cbb14610249578063be45fd621461028b575b600080fd5b341561009357600080fd5b61009b610310565b6040518080602001828103825283818151815260200191508051906020019080838360005b838110156100db5780820151818401526020810190506100c0565b50505050905090810190601f1680156101085780820380516001836020036101000a031916815260200191505b509250505060405180910390f35b341561012157600080fd5b6101296103ae565b6040518082815260200191505060405180910390f35b341561014a57600080fd5b6101526103b4565b604051808260ff1660ff16815260200191505060405180910390f35b341561017957600080fd5b6101a5600480803573ffffffffffffffffffffffffffffffffffffffff169060200190919050506103c7565b6040518082815260200191505060405180910390f35b34156101c657600080fd5b6101ce6103df565b6040518080602001828103825283818151815260200191508051906020019080838360005b8381101561020e5780820151818401526020810190506101f3565b50505050905090810190601f16801561023b5780820380516001836020036101000a031916815260200191505b509250505060405180910390f35b341561025457600080fd5b610289600480803573ffffffffffffffffffffffffffffffffffffffff1690602001909190803590602001909190505061047d565b005b341561029657600080fd5b61030e600480803573ffffffffffffffffffffffffffffffffffffffff1690602001909190803590602001909190803590602001908201803590602001908080601f016020809104026020016040519081016040528093929190818152602001838380828437820191505050505050919050506107b5565b005b60008054600181600116156101000203166002900480601f0160208091040260200160405190810160405280929190818152602001828054600181600116156101000203166002900480156103a65780601f1061037b576101008083540402835291602001916103a6565b820191906000526020600020905b81548152906001019060200180831161038957829003601f168201915b505050505081565b60035481565b600260009054906101000a900460ff1681565b60046020528060005260406000206000915090505481565b60018054600181600116156101000203166002900480601f0160208091040260200160405190810160405280929190818152602001828054600181600116156101000203166002900480156104755780601f1061044a57610100808354040283529160200191610475565b820191906000526020600020905b81548152906001019060200180831161045857829003601f168201915b505050505081565b600080610488610b1c565b843b92506104de84600460003373ffffffffffffffffffffffffffffffffffffffff1673ffffffffffffffffffffffffffffffffffffffff16815260200190815260200160002054610ae590919063ffffffff16565b600460003373ffffffffffffffffffffffffffffffffffffffff1673ffffffffffffffffffffffffffffffffffffffff1681526020019081526020016000208190555061057384600460008873ffffffffffffffffffffffffffffffffffffffff1673ffffffffffffffffffffffffffffffffffffffff16815260200190815260200160002054610afe90919063ffffffff16565b600460008773ffffffffffffffffffffffffffffffffffffffff1673ffffffffffffffffffffffffffffffffffffffff1681526020019081526020016000208190555060008311156106e6578491508173ffffffffffffffffffffffffffffffffffffffff1663c0ee0b8a3386846040518463ffffffff167c0100000000000000000000000000000000000000000000000000000000028152600401808473ffffffffffffffffffffffffffffffffffffffff1673ffffffffffffffffffffffffffffffffffffffff16815260200183815260200180602001828103825283818151815260200191508051906020019080838360005b83811015610684578082015181840152602081019050610669565b50505050905090810190601f1680156106b15780820380516001836020036101000a031916815260200191505b50945050505050600060405180830381600087803b15156106d157600080fd5b6102c65a03f115156106e257600080fd5b5050505b806040518082805190602001908083835b60208310151561071c57805182526020820191506020810190506020830392506106f7565b6001836020036101000a03801982511681845116808217855250505050505090500191505060405180910390208573ffffffffffffffffffffffffffffffffffffffff163373ffffffffffffffffffffffffffffffffffffffff167fe19260aff97b920c7df27010903aeb9c8d2be5d310a2c67824cf3f15396e4c16876040518082815260200191505060405180910390a45050505050565b600080843b915061080e84600460003373ffffffffffffffffffffffffffffffffffffffff1673ffffffffffffffffffffffffffffffffffffffff16815260200190815260200160002054610ae590919063ffffffff16565b600460003373ffffffffffffffffffffffffffffffffffffffff1673ffffffffffffffffffffffffffffffffffffffff168152602001908152602001600020819055506108a384600460008873ffffffffffffffffffffffffffffffffffffffff1673ffffffffffffffffffffffffffffffffffffffff16815260200190815260200160002054610afe90919063ffffffff16565b600460008773ffffffffffffffffffffffffffffffffffffffff1673ffffffffffffffffffffffffffffffffffffffff168152602001908152602001600020819055506000821115610a16578490508073ffffffffffffffffffffffffffffffffffffffff1663c0ee0b8a3386866040518463ffffffff167c0100000000000000000000000000000000000000000000000000000000028152600401808473ffffffffffffffffffffffffffffffffffffffff1673ffffffffffffffffffffffffffffffffffffffff16815260200183815260200180602001828103825283818151815260200191508051906020019080838360005b838110156109b4578082015181840152602081019050610999565b50505050905090810190601f1680156109e15780820380516001836020036101000a031916815260200191505b50945050505050600060405180830381600087803b1515610a0157600080fd5b6102c65a03f11515610a1257600080fd5b5050505b826040518082805190602001908083835b602083101515610a4c5780518252602082019150602081019050602083039250610a27565b6001836020036101000a03801982511681845116808217855250505050505090500191505060405180910390208573ffffffffffffffffffffffffffffffffffffffff163373ffffffffffffffffffffffffffffffffffffffff167fe19260aff97b920c7df27010903aeb9c8d2be5d310a2c67824cf3f15396e4c16876040518082815260200191505060405180910390a45050505050565b6000828211151515610af357fe5b818303905092915050565b6000808284019050838110151515610b1257fe5b8091505092915050565b6020604051908101604052806000815250905600a165627a7a723058200355ba349cf2332fbbeaa002f1b9dfcf123f18f084d1e4c89664bdc2c176a7200029",
  "source": "pragma solidity ^0.4.11;\n\n/**\n * Math operations with safety checks\n */\nlibrary SafeMath {\n  function sub(uint a, uint b) pure internal returns (uint) {\n    assert(b <= a);\n    return a - b;\n  }\n\n  function add(uint a, uint b) pure internal returns (uint) {\n    uint c = a + b;\n    assert(c >= a);\n    return c;\n  }\n}\n\n /*\n * Contract that is working with ERC223 tokens\n */\ncontract ERC223ReceivingContract {\n  function tokenFallback(address _from, uint _value, bytes _data) public;\n}\n\n\ncontract ERC223Token {\n  using SafeMath for uint;\n\n  // token constants\n  string public name;\n  string public symbol;\n  uint8 public decimals;\n  uint256 public totalSupply;\n\n  // token balances\n  mapping(address => uint256) public balanceOf;\n\n  // Function that is called when a user or another contract wants to transfer funds .\n  function transfer(address to, uint value, bytes data) public {\n    // Standard function transfer similar to ERC20 transfer with no _data .\n    // Added due to backwards compatibility reasons .\n    uint codeLength;\n\n    assembly {\n      // Retrieve the size of the code on target address, this needs assembly .\n      codeLength := extcodesize(to)\n    }\n\n    balanceOf[msg.sender] = balanceOf[msg.sender].sub(value);\n    balanceOf[to] = balanceOf[to].add(value);\n    if (codeLength > 0) {\n      ERC223ReceivingContract receiver = ERC223ReceivingContract(to);\n      receiver.tokenFallback(msg.sender, value, data);\n    }\n    Transfer(msg.sender, to, value, data);\n  }\n\n  // Standard function transfer similar to ERC20 transfer with no _data .\n  // Added due to backwards compatibility reasons .\n  function transfer(address to, uint value) public {\n    uint codeLength;\n\n    assembly {\n      // Retrieve the size of the code on target address, this needs assembly .\n      codeLength := extcodesize(to)\n    }\n\n    balanceOf[msg.sender] = balanceOf[msg.sender].sub(value);\n    balanceOf[to] = balanceOf[to].add(value);\n    if (codeLength > 0) {\n      ERC223ReceivingContract receiver = ERC223ReceivingContract(to);\n      bytes memory empty;\n      receiver.tokenFallback(msg.sender, value, empty);\n    }\n    Transfer(msg.sender, to, value, empty);\n  }\n\n  event Transfer(address indexed from, address indexed to, uint value, bytes indexed data);\n}\n\n\ncontract ExpertyToken is ERC223Token {\n  uint256 public circulatingSupply;\n\n  address contractManager;\n  address ethMultisigContract;\n  address exyMultisigContract;\n\n  // not claimed contributions\n  mapping(address => uint256) public contributions;\n\n  // all locked tokens for 18 months & vested for 36 months\n  // will be saved here\n  struct lockedContribution {\n    uint exyPerPeriod;\n    uint8 periods;\n    uint8 claimedPeriods;\n    uint8 periodDuration;\n  }\n  mapping(address => lockedContribution) public lockedContributions;\n\n  // tokens can be claimed when total supply is locked\n  bool locked = false;\n  uint initTimestamp = 0;\n\n  // set basic info in constructor\n  function ExpertyToken() public {\n    name = 'Experty Token';\n    symbol = 'EXY';\n    decimals = 18;\n    totalSupply = 0;\n    circulatingSupply = 0;\n\n    // manager who will be adding presale contributions\n    contractManager = 0x123;\n\n    // withdraw of ether tokens can be done only by multisignature wallet\n    ethMultisigContract = 0x123;\n    exyMultisigContract = 0x123;\n  }\n\n  function lockSupply() public onlyManager onlyUnlocked {\n    locked = true;\n    initTimestamp = block.timestamp;\n  }\n\n  function addContribution(address contributor, uint exyTokens) public onlyUnlocked {\n    contributions[contributor] = exyTokens;\n    totalSupply += exyTokens;\n  }\n\n\n  // allow menager to add all presale contributors before actual TGE\n  function addPartnersAllocation(address addr, uint exyPerPeriod, uint8 periods, uint8 months) public onlyManager onlyUnlocked {\n    lockedContributions[addr] = lockedContribution({\n      exyPerPeriod: exyPerPeriod,\n      periods: periods,\n      claimedPeriods: 0,\n      periodDuration: months\n    });\n    totalSupply += periods * exyPerPeriod;\n  }\n\n  // claim tokens from given address\n  // tokens can be claimed only after supply is locked\n  function claim(address addr) public onlyLocked {\n\n    uint claimedAmount = 0;\n\n    // if there was a standard contribution, send all tokens\n    if (0 < contributions[addr]) {\n      claimedAmount = contributions[addr];\n      // clean balance before transfer\n      contributions[addr] = 0;\n    } else if (0 < lockedContributions[addr].periods) {\n      // ignore claim after all periods were claimed\n      require(lockedContributions[addr].claimedPeriods < lockedContributions[addr].periods);\n\n      // lastPayout is a timestamp, it tells you what was period of your last payout\n      // this is mostly used for company tokens which are vested for 3 years (please reference to the whitepaper)\n      uint256 lastPayout = initTimestamp + (lockedContributions[addr].claimedPeriods + 1) * uint256(lockedContributions[addr].periodDuration) * 1 years / 12;\n\n      // require lastPayout timestamp was before actual timestamp\n      require(lastPayout < block.timestamp);\n\n      // increase claimedPeriods counter\n      lockedContributions[addr].claimedPeriods += 1;\n\n      claimedAmount = lockedContributions[addr].exyPerPeriod;\n    }\n\n    mintToken(addr, claimedAmount);\n  }\n\n  // claim your tokens\n  function claim() public {\n    claim(msg.sender);\n  }\n\n  // this function allows to withdraw ETH using\n  // special multisig contract\n  function withdraw(address addr, uint256 amount) public onlyEthMultisig {\n    // transfer ETH\n    addr.transfer(amount);\n  }\n\n\n  // mint tokens\n  function mintToken(address to, uint value) private {\n    uint codeLength;\n\n    assembly {\n      // Retrieve the size of the code on target address, this needs assembly .\n      codeLength := extcodesize(to)\n    }\n\n    circulatingSupply += value;\n\n    balanceOf[to] = balanceOf[to].add(value);\n    if (codeLength > 0) {\n      ERC223ReceivingContract receiver = ERC223ReceivingContract(to);\n      bytes memory empty;\n      receiver.tokenFallback(msg.sender, value, empty);\n    }\n    Transfer(msg.sender, to, value, empty);\n  }\n\n\n  // Modifiers:\n\n  // only manager can call this\n  modifier onlyManager() {\n    require(msg.sender == contractManager);\n    _;\n  }\n\n  // can be called only when token supply is locked\n  modifier onlyLocked() {\n    require(locked);\n    _;\n  }\n\n  // can be called only when token supply is unlocked\n  modifier onlyUnlocked() {\n    require(!locked);\n    _;\n  }\n\n  // only multisig contract can call this\n  modifier onlyEthMultisig() {\n    require(tx.origin == ethMultisigContract);\n    _;\n  }\n\n  // only multisig contract can call this\n  modifier onlyExyMultisig() {\n    require(tx.origin == exyMultisigContract);\n    _;\n  }\n}\n\n",
  "sourcePath": "/Users/ja/Desktop/sol/experty-tge/contracts/Experty.sol",
  "compiler": {
    "name": "solc",
    "version": "0.4.18+commit.9cf6e910.Emscripten.clang"
  },
  "schemaVersion": "1.0.1",
  "updatedAt": "2018-01-15T10:13:04.462Z"
}