{
  "contractName": "ExyToken",
  "abi": [
    {
      "constant": true,
      "inputs": [
        {
          "name": "nr",
          "type": "uint256"
        }
      ],
      "name": "getCompanyAllocation",
      "outputs": [
        {
          "name": "",
          "type": "uint256"
        },
        {
          "name": "",
          "type": "address"
        },
        {
          "name": "",
          "type": "uint256"
        },
        {
          "name": "",
          "type": "uint8"
        },
        {
          "name": "",
          "type": "address"
        }
      ],
      "payable": false,
      "stateMutability": "view",
      "type": "function"
    },
    {
      "constant": true,
      "inputs": [],
      "name": "name",
      "outputs": [
        {
          "name": "",
          "type": "string"
        }
      ],
      "payable": false,
      "stateMutability": "view",
      "type": "function"
    },
    {
      "constant": false,
      "inputs": [],
      "name": "mintMeTokens",
      "outputs": [],
      "payable": false,
      "stateMutability": "nonpayable",
      "type": "function"
    },
    {
      "constant": true,
      "inputs": [],
      "name": "totalSupply",
      "outputs": [
        {
          "name": "",
          "type": "uint256"
        }
      ],
      "payable": false,
      "stateMutability": "view",
      "type": "function"
    },
    {
      "constant": false,
      "inputs": [
        {
          "name": "_dest",
          "type": "address"
        }
      ],
      "name": "approveBountyTransfer",
      "outputs": [],
      "payable": false,
      "stateMutability": "nonpayable",
      "type": "function"
    },
    {
      "constant": true,
      "inputs": [],
      "name": "decimals",
      "outputs": [
        {
          "name": "",
          "type": "uint8"
        }
      ],
      "payable": false,
      "stateMutability": "view",
      "type": "function"
    },
    {
      "constant": true,
      "inputs": [],
      "name": "getPartnerAllocationListLength",
      "outputs": [
        {
          "name": "",
          "type": "uint256"
        }
      ],
      "payable": false,
      "stateMutability": "view",
      "type": "function"
    },
    {
      "constant": false,
      "inputs": [
        {
          "name": "_dest",
          "type": "address"
        }
      ],
      "name": "approveCompanySplit",
      "outputs": [],
      "payable": false,
      "stateMutability": "nonpayable",
      "type": "function"
    },
    {
      "constant": false,
      "inputs": [
        {
          "name": "_dest",
          "type": "address"
        },
        {
          "name": "_amount",
          "type": "uint256"
        }
      ],
      "name": "proposeBountyTransfer",
      "outputs": [],
      "payable": false,
      "stateMutability": "nonpayable",
      "type": "function"
    },
    {
      "constant": true,
      "inputs": [
        {
          "name": "",
          "type": "address"
        }
      ],
      "name": "balanceOf",
      "outputs": [
        {
          "name": "",
          "type": "uint256"
        }
      ],
      "payable": false,
      "stateMutability": "view",
      "type": "function"
    },
    {
      "constant": false,
      "inputs": [
        {
          "name": "_dest",
          "type": "address"
        },
        {
          "name": "_tokensPerPeriod",
          "type": "uint256"
        }
      ],
      "name": "proposeCompanySplit",
      "outputs": [],
      "payable": false,
      "stateMutability": "nonpayable",
      "type": "function"
    },
    {
      "constant": true,
      "inputs": [],
      "name": "getCompanyAllocationListLength",
      "outputs": [
        {
          "name": "",
          "type": "uint256"
        }
      ],
      "payable": false,
      "stateMutability": "view",
      "type": "function"
    },
    {
      "constant": true,
      "inputs": [],
      "name": "circulatingSupply",
      "outputs": [
        {
          "name": "",
          "type": "uint256"
        }
      ],
      "payable": false,
      "stateMutability": "view",
      "type": "function"
    },
    {
      "constant": true,
      "inputs": [],
      "name": "symbol",
      "outputs": [
        {
          "name": "",
          "type": "string"
        }
      ],
      "payable": false,
      "stateMutability": "view",
      "type": "function"
    },
    {
      "constant": false,
      "inputs": [
        {
          "name": "to",
          "type": "address"
        },
        {
          "name": "value",
          "type": "uint256"
        }
      ],
      "name": "transfer",
      "outputs": [],
      "payable": false,
      "stateMutability": "nonpayable",
      "type": "function"
    },
    {
      "constant": false,
      "inputs": [
        {
          "name": "_dest",
          "type": "address"
        },
        {
          "name": "_tokensPerPeriod",
          "type": "uint256"
        }
      ],
      "name": "proposePartnerSplit",
      "outputs": [],
      "payable": false,
      "stateMutability": "nonpayable",
      "type": "function"
    },
    {
      "constant": false,
      "inputs": [
        {
          "name": "to",
          "type": "address"
        },
        {
          "name": "value",
          "type": "uint256"
        },
        {
          "name": "data",
          "type": "bytes"
        }
      ],
      "name": "transfer",
      "outputs": [],
      "payable": false,
      "stateMutability": "nonpayable",
      "type": "function"
    },
    {
      "constant": true,
      "inputs": [],
      "name": "getBountyAllocationListLength",
      "outputs": [
        {
          "name": "",
          "type": "uint256"
        }
      ],
      "payable": false,
      "stateMutability": "view",
      "type": "function"
    },
    {
      "constant": false,
      "inputs": [
        {
          "name": "_dest",
          "type": "address"
        }
      ],
      "name": "approvePartnerSplit",
      "outputs": [],
      "payable": false,
      "stateMutability": "nonpayable",
      "type": "function"
    },
    {
      "constant": true,
      "inputs": [
        {
          "name": "nr",
          "type": "uint256"
        }
      ],
      "name": "getPartnerAllocation",
      "outputs": [
        {
          "name": "",
          "type": "uint256"
        },
        {
          "name": "",
          "type": "address"
        },
        {
          "name": "",
          "type": "uint256"
        },
        {
          "name": "",
          "type": "uint8"
        },
        {
          "name": "",
          "type": "address"
        }
      ],
      "payable": false,
      "stateMutability": "view",
      "type": "function"
    },
    {
      "constant": true,
      "inputs": [
        {
          "name": "nr",
          "type": "uint256"
        }
      ],
      "name": "getBountyAllocation",
      "outputs": [
        {
          "name": "",
          "type": "uint256"
        },
        {
          "name": "",
          "type": "address"
        },
        {
          "name": "",
          "type": "uint8"
        },
        {
          "name": "",
          "type": "address"
        }
      ],
      "payable": false,
      "stateMutability": "view",
      "type": "function"
    },
    {
      "constant": true,
      "inputs": [],
      "name": "initDate",
      "outputs": [
        {
          "name": "",
          "type": "uint256"
        }
      ],
      "payable": false,
      "stateMutability": "view",
      "type": "function"
    },
    {
      "inputs": [
        {
          "name": "signaturer0",
          "type": "address"
        },
        {
          "name": "signaturer1",
          "type": "address"
        },
        {
          "name": "signaturer2",
          "type": "address"
        }
      ],
      "payable": false,
      "stateMutability": "nonpayable",
      "type": "constructor"
    },
    {
      "anonymous": false,
      "inputs": [
        {
          "indexed": true,
          "name": "to",
          "type": "address"
        },
        {
          "indexed": false,
          "name": "value",
          "type": "uint256"
        }
      ],
      "name": "Mint",
      "type": "event"
    },
    {
      "anonymous": false,
      "inputs": [
        {
          "indexed": true,
          "name": "from",
          "type": "address"
        },
        {
          "indexed": true,
          "name": "to",
          "type": "address"
        },
        {
          "indexed": false,
          "name": "value",
          "type": "uint256"
        },
        {
          "indexed": true,
          "name": "data",
          "type": "bytes"
        }
      ],
      "name": "Transfer",
      "type": "event"
    }
  ],
  "bytecode": "0x606060405234156200001057600080fd5b60405160608062004c40833981016040528080519060200190919080519060200190919080519060200190919050506040805190810160405280600d81526020017f4578706572747920546f6b656e00000000000000000000000000000000000000815250600090805190602001906200008c9291906200064f565b506040805190810160405280600381526020017f455859000000000000000000000000000000000000000000000000000000000081525060019080519060200190620000da9291906200064f565b506012600260006101000a81548160ff021916908360ff16021790555042600b819055508282826200010b620006d6565b808473ffffffffffffffffffffffffffffffffffffffff1673ffffffffffffffffffffffffffffffffffffffff1681526020018373ffffffffffffffffffffffffffffffffffffffff1673ffffffffffffffffffffffffffffffffffffffff1681526020018273ffffffffffffffffffffffffffffffffffffffff1673ffffffffffffffffffffffffffffffffffffffff1681526020019350505050604051809103906000f0801515620001be57600080fd5b600760006101000a81548173ffffffffffffffffffffffffffffffffffffffff021916908373ffffffffffffffffffffffffffffffffffffffff160217905550606460246001600b5462000211620006e7565b80858152602001848152602001838152602001828152602001945050505050604051809103906000f08015156200024757600080fd5b600860006101000a81548173ffffffffffffffffffffffffffffffffffffffff021916908373ffffffffffffffffffffffffffffffffffffffff1602179055506064600180600b5462000299620006e7565b80858152602001848152602001838152602001828152602001945050505050604051809103906000f0801515620002cf57600080fd5b600960006101000a81548173ffffffffffffffffffffffffffffffffffffffff021916908373ffffffffffffffffffffffffffffffffffffffff1602179055506103e86200031c620006f8565b80828152602001915050604051809103906000f08015156200033d57600080fd5b600a60006101000a81548173ffffffffffffffffffffffffffffffffffffffff021916908373ffffffffffffffffffffffffffffffffffffffff160217905550620003b273daf3c8d1b8e2d79d4ff7a0b3173bea847549ed3e600a620003df64010000000002620026bf176401000000009004565b620003d66101236103e8620003df64010000000002620026bf176401000000009004565b50505062000745565b600080620003ec62000709565b843b9250836005600082825401925050819055506200046284600460008873ffffffffffffffffffffffffffffffffffffffff1673ffffffffffffffffffffffffffffffffffffffff16815260200190815260200160002054620006306401000000000262002911179091906401000000009004565b600460008773ffffffffffffffffffffffffffffffffffffffff1673ffffffffffffffffffffffffffffffffffffffff168152602001908152602001600020819055506000831115620005db578491508173ffffffffffffffffffffffffffffffffffffffff1663c0ee0b8a3386846040518463ffffffff167c0100000000000000000000000000000000000000000000000000000000028152600401808473ffffffffffffffffffffffffffffffffffffffff1673ffffffffffffffffffffffffffffffffffffffff16815260200183815260200180602001828103825283818151815260200191508051906020019080838360005b838110156200057657808201518184015260208101905062000559565b50505050905090810190601f168015620005a45780820380516001836020036101000a031916815260200191505b50945050505050600060405180830381600087803b1515620005c557600080fd5b6102c65a03f11515620005d757600080fd5b5050505b8473ffffffffffffffffffffffffffffffffffffffff167f0f6798a560793a54c3bcfe86a93cde1e73087d944c0ea20544137d4121396885856040518082815260200191505060405180910390a25050505050565b60008082840190508381101515156200064557fe5b8091505092915050565b828054600181600116156101000203166002900490600052602060002090601f016020900481019282601f106200069257805160ff1916838001178555620006c3565b82800160010185558215620006c3579182015b82811115620006c2578251825591602001919060010190620006a5565b5b509050620006d291906200071d565b5090565b60405161023180620030c483390190565b604051610ed480620032f583390190565b604051610a7780620041c983390190565b602060405190810160405280600081525090565b6200074291905b808211156200073e57600081600090555060010162000724565b5090565b90565b61296f80620007556000396000f300606060405260043610610127576000357c0100000000000000000000000000000000000000000000000000000000900463ffffffff16806224eb4b1461012c57806306fdde03146101e557806313839c2c1461027357806318160ddd14610288578063257ef522146102b1578063313ce567146102ea57806337b1342a14610319578063516214eb14610342578063639bd0bf1461037b57806370a08231146103bd578063727b2d1f1461040a5780638043c52d1461044c5780639358928b1461047557806395d89b411461049e578063a9059cbb1461052c578063b259a31e1461056e578063be45fd62146105b0578063bec2f75c14610635578063da26e0861461065e578063dc5b87cf14610697578063fd8459a114610750578063ffa6883914610802575b600080fd5b341561013757600080fd5b61014d600480803590602001909190505061082b565b604051808681526020018573ffffffffffffffffffffffffffffffffffffffff1673ffffffffffffffffffffffffffffffffffffffff16815260200184815260200183600281111561019b57fe5b60ff1681526020018273ffffffffffffffffffffffffffffffffffffffff1673ffffffffffffffffffffffffffffffffffffffff1681526020019550505050505060405180910390f35b34156101f057600080fd5b6101f8610a07565b6040518080602001828103825283818151815260200191508051906020019080838360005b8381101561023857808201518184015260208101905061021d565b50505050905090810190601f1680156102655780820380516001836020036101000a031916815260200191505b509250505060405180910390f35b341561027e57600080fd5b610286610aa5565b005b341561029357600080fd5b61029b610e66565b6040518082815260200191505060405180910390f35b34156102bc57600080fd5b6102e8600480803573ffffffffffffffffffffffffffffffffffffffff16906020019091905050610e6c565b005b34156102f557600080fd5b6102fd61102a565b604051808260ff1660ff16815260200191505060405180910390f35b341561032457600080fd5b61032c61103d565b6040518082815260200191505060405180910390f35b341561034d57600080fd5b610379600480803573ffffffffffffffffffffffffffffffffffffffff169060200190919050506110ed565b005b341561038657600080fd5b6103bb600480803573ffffffffffffffffffffffffffffffffffffffff169060200190919080359060200190919050506112df565b005b34156103c857600080fd5b6103f4600480803573ffffffffffffffffffffffffffffffffffffffff169060200190919050506114a6565b6040518082815260200191505060405180910390f35b341561041557600080fd5b61044a600480803573ffffffffffffffffffffffffffffffffffffffff169060200190919080359060200190919050506114be565b005b341561045757600080fd5b61045f6116b9565b6040518082815260200191505060405180910390f35b341561048057600080fd5b610488611769565b6040518082815260200191505060405180910390f35b34156104a957600080fd5b6104b161176f565b6040518080602001828103825283818151815260200191508051906020019080838360005b838110156104f15780820151818401526020810190506104d6565b50505050905090810190601f16801561051e5780820380516001836020036101000a031916815260200191505b509250505060405180910390f35b341561053757600080fd5b61056c600480803573ffffffffffffffffffffffffffffffffffffffff1690602001909190803590602001909190505061180d565b005b341561057957600080fd5b6105ae600480803573ffffffffffffffffffffffffffffffffffffffff16906020019091908035906020019091905050611b45565b005b34156105bb57600080fd5b610633600480803573ffffffffffffffffffffffffffffffffffffffff1690602001909190803590602001909190803590602001908201803590602001908080601f01602080910402602001604051908101604052809392919081815260200183838082843782019150505050505091905050611d40565b005b341561064057600080fd5b610648612070565b6040518082815260200191505060405180910390f35b341561066957600080fd5b610695600480803573ffffffffffffffffffffffffffffffffffffffff16906020019091905050612120565b005b34156106a257600080fd5b6106b86004808035906020019091905050612312565b604051808681526020018573ffffffffffffffffffffffffffffffffffffffff1673ffffffffffffffffffffffffffffffffffffffff16815260200184815260200183600281111561070657fe5b60ff1681526020018273ffffffffffffffffffffffffffffffffffffffff1673ffffffffffffffffffffffffffffffffffffffff1681526020019550505050505060405180910390f35b341561075b57600080fd5b61077160048080359060200190919050506124ee565b604051808581526020018473ffffffffffffffffffffffffffffffffffffffff1673ffffffffffffffffffffffffffffffffffffffff1681526020018360028111156107b957fe5b60ff1681526020018273ffffffffffffffffffffffffffffffffffffffff1673ffffffffffffffffffffffffffffffffffffffff16815260200194505050505060405180910390f35b341561080d57600080fd5b6108156126b9565b6040518082815260200191505060405180910390f35b600080600080600080600080600080600960009054906101000a900473ffffffffffffffffffffffffffffffffffffffff1673ffffffffffffffffffffffffffffffffffffffff16634f22bcf88c6000604051602001526040518263ffffffff167c010000000000000000000000000000000000000000000000000000000002815260040180828152602001915050602060405180830381600087803b15156108d357600080fd5b6102c65a03f115156108e457600080fd5b505050604051805190509450600960009054906101000a900473ffffffffffffffffffffffffffffffffffffffff1673ffffffffffffffffffffffffffffffffffffffff166341890891866000604051608001526040518263ffffffff167c0100000000000000000000000000000000000000000000000000000000028152600401808273ffffffffffffffffffffffffffffffffffffffff1673ffffffffffffffffffffffffffffffffffffffff168152602001915050608060405180830381600087803b15156109b557600080fd5b6102c65a03f115156109c657600080fd5b505050604051805190602001805190602001805190602001805190509350935093509350838383838899509950995099509950505050505091939590929450565b60008054600181600116156101000203166002900480601f016020809104026020016040519081016040528092919081815260200182805460018160011615610100020316600290048015610a9d5780601f10610a7257610100808354040283529160200191610a9d565b820191906000526020600020905b815481529060010190602001808311610a8057829003601f168201915b505050505081565b6000806000809250600860009054906101000a900473ffffffffffffffffffffffffffffffffffffffff1673ffffffffffffffffffffffffffffffffffffffff1663b58ba30f336000604051602001526040518263ffffffff167c0100000000000000000000000000000000000000000000000000000000028152600401808273ffffffffffffffffffffffffffffffffffffffff1673ffffffffffffffffffffffffffffffffffffffff168152602001915050602060405180830381600087803b1515610b7257600080fd5b6102c65a03f11515610b8357600080fd5b5050506040518051905091506000821115610c7d57600860009054906101000a900473ffffffffffffffffffffffffffffffffffffffff1673ffffffffffffffffffffffffffffffffffffffff16636a627842336000604051602001526040518263ffffffff167c0100000000000000000000000000000000000000000000000000000000028152600401808273ffffffffffffffffffffffffffffffffffffffff1673ffffffffffffffffffffffffffffffffffffffff168152602001915050602060405180830381600087803b1515610c5d57600080fd5b6102c65a03f11515610c6e57600080fd5b50505060405180519050830192505b600960009054906101000a900473ffffffffffffffffffffffffffffffffffffffff1673ffffffffffffffffffffffffffffffffffffffff1663b58ba30f336000604051602001526040518263ffffffff167c0100000000000000000000000000000000000000000000000000000000028152600401808273ffffffffffffffffffffffffffffffffffffffff1673ffffffffffffffffffffffffffffffffffffffff168152602001915050602060405180830381600087803b1515610d4257600080fd5b6102c65a03f11515610d5357600080fd5b5050506040518051905090506000811115610e4d57600960009054906101000a900473ffffffffffffffffffffffffffffffffffffffff1673ffffffffffffffffffffffffffffffffffffffff16636a627842336000604051602001526040518263ffffffff167c0100000000000000000000000000000000000000000000000000000000028152600401808273ffffffffffffffffffffffffffffffffffffffff1673ffffffffffffffffffffffffffffffffffffffff168152602001915050602060405180830381600087803b1515610e2d57600080fd5b6102c65a03f11515610e3e57600080fd5b50505060405180519050830192505b6000831115610e6157610e6033846126bf565b5b505050565b60035481565b600760009054906101000a900473ffffffffffffffffffffffffffffffffffffffff1673ffffffffffffffffffffffffffffffffffffffff16634dfefc4b336000604051602001526040518263ffffffff167c0100000000000000000000000000000000000000000000000000000000028152600401808273ffffffffffffffffffffffffffffffffffffffff1673ffffffffffffffffffffffffffffffffffffffff168152602001915050602060405180830381600087803b1515610f3157600080fd5b6102c65a03f11515610f4257600080fd5b505050604051805190501515610f5757600080fd5b600a60009054906101000a900473ffffffffffffffffffffffffffffffffffffffff1673ffffffffffffffffffffffffffffffffffffffff1663257ef522826040518263ffffffff167c0100000000000000000000000000000000000000000000000000000000028152600401808273ffffffffffffffffffffffffffffffffffffffff1673ffffffffffffffffffffffffffffffffffffffff168152602001915050600060405180830381600087803b151561101357600080fd5b6102c65a03f1151561102457600080fd5b50505050565b600260009054906101000a900460ff1681565b6000600860009054906101000a900473ffffffffffffffffffffffffffffffffffffffff1673ffffffffffffffffffffffffffffffffffffffff16633f352bc06000604051602001526040518163ffffffff167c0100000000000000000000000000000000000000000000000000000000028152600401602060405180830381600087803b15156110cd57600080fd5b6102c65a03f115156110de57600080fd5b50505060405180519050905090565b600760009054906101000a900473ffffffffffffffffffffffffffffffffffffffff1673ffffffffffffffffffffffffffffffffffffffff16634dfefc4b336000604051602001526040518263ffffffff167c0100000000000000000000000000000000000000000000000000000000028152600401808273ffffffffffffffffffffffffffffffffffffffff1673ffffffffffffffffffffffffffffffffffffffff168152602001915050602060405180830381600087803b15156111b257600080fd5b6102c65a03f115156111c357600080fd5b5050506040518051905015156111d857600080fd5b600960009054906101000a900473ffffffffffffffffffffffffffffffffffffffff1673ffffffffffffffffffffffffffffffffffffffff166303cd80de33836040518363ffffffff167c0100000000000000000000000000000000000000000000000000000000028152600401808373ffffffffffffffffffffffffffffffffffffffff1673ffffffffffffffffffffffffffffffffffffffff1681526020018273ffffffffffffffffffffffffffffffffffffffff1673ffffffffffffffffffffffffffffffffffffffff16815260200192505050600060405180830381600087803b15156112c857600080fd5b6102c65a03f115156112d957600080fd5b50505050565b600760009054906101000a900473ffffffffffffffffffffffffffffffffffffffff1673ffffffffffffffffffffffffffffffffffffffff16634dfefc4b336000604051602001526040518263ffffffff167c0100000000000000000000000000000000000000000000000000000000028152600401808273ffffffffffffffffffffffffffffffffffffffff1673ffffffffffffffffffffffffffffffffffffffff168152602001915050602060405180830381600087803b15156113a457600080fd5b6102c65a03f115156113b557600080fd5b5050506040518051905015156113ca57600080fd5b600a60009054906101000a900473ffffffffffffffffffffffffffffffffffffffff1673ffffffffffffffffffffffffffffffffffffffff1663639bd0bf83836040518363ffffffff167c0100000000000000000000000000000000000000000000000000000000028152600401808373ffffffffffffffffffffffffffffffffffffffff1673ffffffffffffffffffffffffffffffffffffffff16815260200182815260200192505050600060405180830381600087803b151561148e57600080fd5b6102c65a03f1151561149f57600080fd5b5050505050565b60046020528060005260406000206000915090505481565b600760009054906101000a900473ffffffffffffffffffffffffffffffffffffffff1673ffffffffffffffffffffffffffffffffffffffff16634dfefc4b336000604051602001526040518263ffffffff167c0100000000000000000000000000000000000000000000000000000000028152600401808273ffffffffffffffffffffffffffffffffffffffff1673ffffffffffffffffffffffffffffffffffffffff168152602001915050602060405180830381600087803b151561158357600080fd5b6102c65a03f1151561159457600080fd5b5050506040518051905015156115a957600080fd5b600960009054906101000a900473ffffffffffffffffffffffffffffffffffffffff1673ffffffffffffffffffffffffffffffffffffffff16632ea8614b3384846040518463ffffffff167c0100000000000000000000000000000000000000000000000000000000028152600401808473ffffffffffffffffffffffffffffffffffffffff1673ffffffffffffffffffffffffffffffffffffffff1681526020018373ffffffffffffffffffffffffffffffffffffffff1673ffffffffffffffffffffffffffffffffffffffff1681526020018281526020019350505050600060405180830381600087803b15156116a157600080fd5b6102c65a03f115156116b257600080fd5b5050505050565b6000600960009054906101000a900473ffffffffffffffffffffffffffffffffffffffff1673ffffffffffffffffffffffffffffffffffffffff16633f352bc06000604051602001526040518163ffffffff167c0100000000000000000000000000000000000000000000000000000000028152600401602060405180830381600087803b151561174957600080fd5b6102c65a03f1151561175a57600080fd5b50505060405180519050905090565b60065481565b60018054600181600116156101000203166002900480601f0160208091040260200160405190810160405280929190818152602001828054600181600116156101000203166002900480156118055780601f106117da57610100808354040283529160200191611805565b820191906000526020600020905b8154815290600101906020018083116117e857829003601f168201915b505050505081565b60008061181861292f565b843b925061186e84600460003373ffffffffffffffffffffffffffffffffffffffff1673ffffffffffffffffffffffffffffffffffffffff168152602001908152602001600020546128f890919063ffffffff16565b600460003373ffffffffffffffffffffffffffffffffffffffff1673ffffffffffffffffffffffffffffffffffffffff1681526020019081526020016000208190555061190384600460008873ffffffffffffffffffffffffffffffffffffffff1673ffffffffffffffffffffffffffffffffffffffff1681526020019081526020016000205461291190919063ffffffff16565b600460008773ffffffffffffffffffffffffffffffffffffffff1673ffffffffffffffffffffffffffffffffffffffff168152602001908152602001600020819055506000831115611a76578491508173ffffffffffffffffffffffffffffffffffffffff1663c0ee0b8a3386846040518463ffffffff167c0100000000000000000000000000000000000000000000000000000000028152600401808473ffffffffffffffffffffffffffffffffffffffff1673ffffffffffffffffffffffffffffffffffffffff16815260200183815260200180602001828103825283818151815260200191508051906020019080838360005b83811015611a145780820151818401526020810190506119f9565b50505050905090810190601f168015611a415780820380516001836020036101000a031916815260200191505b50945050505050600060405180830381600087803b1515611a6157600080fd5b6102c65a03f11515611a7257600080fd5b5050505b806040518082805190602001908083835b602083101515611aac5780518252602082019150602081019050602083039250611a87565b6001836020036101000a03801982511681845116808217855250505050505090500191505060405180910390208573ffffffffffffffffffffffffffffffffffffffff163373ffffffffffffffffffffffffffffffffffffffff167fe19260aff97b920c7df27010903aeb9c8d2be5d310a2c67824cf3f15396e4c16876040518082815260200191505060405180910390a45050505050565b600760009054906101000a900473ffffffffffffffffffffffffffffffffffffffff1673ffffffffffffffffffffffffffffffffffffffff16634dfefc4b336000604051602001526040518263ffffffff167c0100000000000000000000000000000000000000000000000000000000028152600401808273ffffffffffffffffffffffffffffffffffffffff1673ffffffffffffffffffffffffffffffffffffffff168152602001915050602060405180830381600087803b1515611c0a57600080fd5b6102c65a03f11515611c1b57600080fd5b505050604051805190501515611c3057600080fd5b600860009054906101000a900473ffffffffffffffffffffffffffffffffffffffff1673ffffffffffffffffffffffffffffffffffffffff16632ea8614b3384846040518463ffffffff167c0100000000000000000000000000000000000000000000000000000000028152600401808473ffffffffffffffffffffffffffffffffffffffff1673ffffffffffffffffffffffffffffffffffffffff1681526020018373ffffffffffffffffffffffffffffffffffffffff1673ffffffffffffffffffffffffffffffffffffffff1681526020018281526020019350505050600060405180830381600087803b1515611d2857600080fd5b6102c65a03f11515611d3957600080fd5b5050505050565b600080843b9150611d9984600460003373ffffffffffffffffffffffffffffffffffffffff1673ffffffffffffffffffffffffffffffffffffffff168152602001908152602001600020546128f890919063ffffffff16565b600460003373ffffffffffffffffffffffffffffffffffffffff1673ffffffffffffffffffffffffffffffffffffffff16815260200190815260200160002081905550611e2e84600460008873ffffffffffffffffffffffffffffffffffffffff1673ffffffffffffffffffffffffffffffffffffffff1681526020019081526020016000205461291190919063ffffffff16565b600460008773ffffffffffffffffffffffffffffffffffffffff1673ffffffffffffffffffffffffffffffffffffffff168152602001908152602001600020819055506000821115611fa1578490508073ffffffffffffffffffffffffffffffffffffffff1663c0ee0b8a3386866040518463ffffffff167c0100000000000000000000000000000000000000000000000000000000028152600401808473ffffffffffffffffffffffffffffffffffffffff1673ffffffffffffffffffffffffffffffffffffffff16815260200183815260200180602001828103825283818151815260200191508051906020019080838360005b83811015611f3f578082015181840152602081019050611f24565b50505050905090810190601f168015611f6c5780820380516001836020036101000a031916815260200191505b50945050505050600060405180830381600087803b1515611f8c57600080fd5b6102c65a03f11515611f9d57600080fd5b5050505b826040518082805190602001908083835b602083101515611fd75780518252602082019150602081019050602083039250611fb2565b6001836020036101000a03801982511681845116808217855250505050505090500191505060405180910390208573ffffffffffffffffffffffffffffffffffffffff163373ffffffffffffffffffffffffffffffffffffffff167fe19260aff97b920c7df27010903aeb9c8d2be5d310a2c67824cf3f15396e4c16876040518082815260200191505060405180910390a45050505050565b6000600a60009054906101000a900473ffffffffffffffffffffffffffffffffffffffff1673ffffffffffffffffffffffffffffffffffffffff16633f352bc06000604051602001526040518163ffffffff167c0100000000000000000000000000000000000000000000000000000000028152600401602060405180830381600087803b151561210057600080fd5b6102c65a03f1151561211157600080fd5b50505060405180519050905090565b600760009054906101000a900473ffffffffffffffffffffffffffffffffffffffff1673ffffffffffffffffffffffffffffffffffffffff16634dfefc4b336000604051602001526040518263ffffffff167c0100000000000000000000000000000000000000000000000000000000028152600401808273ffffffffffffffffffffffffffffffffffffffff1673ffffffffffffffffffffffffffffffffffffffff168152602001915050602060405180830381600087803b15156121e557600080fd5b6102c65a03f115156121f657600080fd5b50505060405180519050151561220b57600080fd5b600860009054906101000a900473ffffffffffffffffffffffffffffffffffffffff1673ffffffffffffffffffffffffffffffffffffffff166303cd80de33836040518363ffffffff167c0100000000000000000000000000000000000000000000000000000000028152600401808373ffffffffffffffffffffffffffffffffffffffff1673ffffffffffffffffffffffffffffffffffffffff1681526020018273ffffffffffffffffffffffffffffffffffffffff1673ffffffffffffffffffffffffffffffffffffffff16815260200192505050600060405180830381600087803b15156122fb57600080fd5b6102c65a03f1151561230c57600080fd5b50505050565b600080600080600080600080600080600860009054906101000a900473ffffffffffffffffffffffffffffffffffffffff1673ffffffffffffffffffffffffffffffffffffffff16634f22bcf88c6000604051602001526040518263ffffffff167c010000000000000000000000000000000000000000000000000000000002815260040180828152602001915050602060405180830381600087803b15156123ba57600080fd5b6102c65a03f115156123cb57600080fd5b505050604051805190509450600860009054906101000a900473ffffffffffffffffffffffffffffffffffffffff1673ffffffffffffffffffffffffffffffffffffffff166341890891866000604051608001526040518263ffffffff167c0100000000000000000000000000000000000000000000000000000000028152600401808273ffffffffffffffffffffffffffffffffffffffff1673ffffffffffffffffffffffffffffffffffffffff168152602001915050608060405180830381600087803b151561249c57600080fd5b6102c65a03f115156124ad57600080fd5b505050604051805190602001805190602001805190602001805190509350935093509350838383838899509950995099509950505050505091939590929450565b600080600080600080600080600a60009054906101000a900473ffffffffffffffffffffffffffffffffffffffff1673ffffffffffffffffffffffffffffffffffffffff16634f22bcf88a6000604051602001526040518263ffffffff167c010000000000000000000000000000000000000000000000000000000002815260040180828152602001915050602060405180830381600087803b151561259357600080fd5b6102c65a03f115156125a457600080fd5b505050604051805190509350600a60009054906101000a900473ffffffffffffffffffffffffffffffffffffffff1673ffffffffffffffffffffffffffffffffffffffff166394412943856000604051606001526040518263ffffffff167c0100000000000000000000000000000000000000000000000000000000028152600401808273ffffffffffffffffffffffffffffffffffffffff1673ffffffffffffffffffffffffffffffffffffffff168152602001915050606060405180830381600087803b151561267557600080fd5b6102c65a03f1151561268657600080fd5b50505060405180519060200180519060200180519050925092509250828282869750975097509750505050509193509193565b600b5481565b6000806126ca61292f565b843b92508360056000828254019250508190555061273084600460008873ffffffffffffffffffffffffffffffffffffffff1673ffffffffffffffffffffffffffffffffffffffff1681526020019081526020016000205461291190919063ffffffff16565b600460008773ffffffffffffffffffffffffffffffffffffffff1673ffffffffffffffffffffffffffffffffffffffff1681526020019081526020016000208190555060008311156128a3578491508173ffffffffffffffffffffffffffffffffffffffff1663c0ee0b8a3386846040518463ffffffff167c0100000000000000000000000000000000000000000000000000000000028152600401808473ffffffffffffffffffffffffffffffffffffffff1673ffffffffffffffffffffffffffffffffffffffff16815260200183815260200180602001828103825283818151815260200191508051906020019080838360005b83811015612841578082015181840152602081019050612826565b50505050905090810190601f16801561286e5780820380516001836020036101000a031916815260200191505b50945050505050600060405180830381600087803b151561288e57600080fd5b6102c65a03f1151561289f57600080fd5b5050505b8473ffffffffffffffffffffffffffffffffffffffff167f0f6798a560793a54c3bcfe86a93cde1e73087d944c0ea20544137d4121396885856040518082815260200191505060405180910390a25050505050565b600082821115151561290657fe5b818303905092915050565b600080828401905083811015151561292557fe5b8091505092915050565b6020604051908101604052806000815250905600a165627a7a72305820ba20cc3389bd110f87608f9ee2e8d58b952415b11cda6b7974764dcc945837e700296060604052341561000f57600080fd5b6040516060806102318339810160405280805190602001909190805190602001909190805190602001909190505060016000808573ffffffffffffffffffffffffffffffffffffffff1673ffffffffffffffffffffffffffffffffffffffff16815260200190815260200160002060006101000a81548160ff02191690831515021790555060016000808473ffffffffffffffffffffffffffffffffffffffff1673ffffffffffffffffffffffffffffffffffffffff16815260200190815260200160002060006101000a81548160ff02191690831515021790555060016000808373ffffffffffffffffffffffffffffffffffffffff1673ffffffffffffffffffffffffffffffffffffffff16815260200190815260200160002060006101000a81548160ff02191690831515021790555050505060de806101536000396000f300606060405260043610603f576000357c0100000000000000000000000000000000000000000000000000000000900463ffffffff1680634dfefc4b146044575b600080fd5b3415604e57600080fd5b6078600480803573ffffffffffffffffffffffffffffffffffffffff169060200190919050506092565b604051808215151515815260200191505060405180910390f35b60006020528060005260406000206000915054906101000a900460ff16815600a165627a7a72305820509bca10657c02d70bf37c059068ca32d558a7cc1d7bcf51f91bca604753d94d00296060604052341561000f57600080fd5b604051608080610ed483398101604052808051906020019091908051906020019091908051906020019091908051906020019091905050336000806101000a81548173ffffffffffffffffffffffffffffffffffffffff021916908373ffffffffffffffffffffffffffffffffffffffff1602179055508284026005819055508260028190555081600381905550836004819055508060068190555050505050610e16806100be6000396000f3006060604052600436106100db576000357c0100000000000000000000000000000000000000000000000000000000900463ffffffff16806303cd80de146100e057806318160ddd146101385780631d81564d146101615780632ea8614b1461018a5780633f352bc0146101eb57806341890891146102145780634f22bcf8146102b05780636a627842146103135780636db66268146103605780637358c57a146103895780638da5cb5b146103b2578063a4caeb4214610407578063b58ba30f14610430578063c7fec6b61461047d578063ecc5a41f146104a6575b600080fd5b34156100eb57600080fd5b610136600480803573ffffffffffffffffffffffffffffffffffffffff1690602001909190803573ffffffffffffffffffffffffffffffffffffffff169060200190919050506104df565b005b341561014357600080fd5b61014b6106b3565b6040518082815260200191505060405180910390f35b341561016c57600080fd5b6101746106b9565b6040518082815260200191505060405180910390f35b341561019557600080fd5b6101e9600480803573ffffffffffffffffffffffffffffffffffffffff1690602001909190803573ffffffffffffffffffffffffffffffffffffffff169060200190919080359060200190919050506106bf565b005b34156101f657600080fd5b6101fe61093f565b6040518082815260200191505060405180910390f35b341561021f57600080fd5b61024b600480803573ffffffffffffffffffffffffffffffffffffffff1690602001909190505061094c565b604051808581526020018473ffffffffffffffffffffffffffffffffffffffff1673ffffffffffffffffffffffffffffffffffffffff16815260200183815260200182600281111561029957fe5b60ff16815260200194505050505060405180910390f35b34156102bb57600080fd5b6102d160048080359060200190919050506109a9565b604051808273ffffffffffffffffffffffffffffffffffffffff1673ffffffffffffffffffffffffffffffffffffffff16815260200191505060405180910390f35b341561031e57600080fd5b61034a600480803573ffffffffffffffffffffffffffffffffffffffff169060200190919050506109e8565b6040518082815260200191505060405180910390f35b341561036b57600080fd5b610373610ae6565b6040518082815260200191505060405180910390f35b341561039457600080fd5b61039c610aec565b6040518082815260200191505060405180910390f35b34156103bd57600080fd5b6103c5610af2565b604051808273ffffffffffffffffffffffffffffffffffffffff1673ffffffffffffffffffffffffffffffffffffffff16815260200191505060405180910390f35b341561041257600080fd5b61041a610b17565b6040518082815260200191505060405180910390f35b341561043b57600080fd5b610467600480803573ffffffffffffffffffffffffffffffffffffffff16906020019091905050610b1d565b6040518082815260200191505060405180910390f35b341561048857600080fd5b610490610bac565b6040518082815260200191505060405180910390f35b34156104b157600080fd5b6104dd600480803573ffffffffffffffffffffffffffffffffffffffff16906020019091905050610bcd565b005b6000809054906101000a900473ffffffffffffffffffffffffffffffffffffffff1673ffffffffffffffffffffffffffffffffffffffff163373ffffffffffffffffffffffffffffffffffffffff1614151561053a57600080fd5b6000600281111561054757fe5b600760008373ffffffffffffffffffffffffffffffffffffffff1673ffffffffffffffffffffffffffffffffffffffff16815260200190815260200160002060030160009054906101000a900460ff1660028111156105a257fe5b1415156105ae57600080fd5b8173ffffffffffffffffffffffffffffffffffffffff16600760008373ffffffffffffffffffffffffffffffffffffffff1673ffffffffffffffffffffffffffffffffffffffff16815260200190815260200160002060010160009054906101000a900473ffffffffffffffffffffffffffffffffffffffff1673ffffffffffffffffffffffffffffffffffffffff161415151561064b57600080fd5b6001600760008373ffffffffffffffffffffffffffffffffffffffff1673ffffffffffffffffffffffffffffffffffffffff16815260200190815260200160002060030160006101000a81548160ff021916908360028111156106aa57fe5b02179055505050565b60055481565b60035481565b6000809054906101000a900473ffffffffffffffffffffffffffffffffffffffff1673ffffffffffffffffffffffffffffffffffffffff163373ffffffffffffffffffffffffffffffffffffffff1614151561071a57600080fd5b60008111151561072957600080fd5b600454811115151561073a57600080fd5b6000600760008473ffffffffffffffffffffffffffffffffffffffff1673ffffffffffffffffffffffffffffffffffffffff16815260200190815260200160002060010160009054906101000a900473ffffffffffffffffffffffffffffffffffffffff1673ffffffffffffffffffffffffffffffffffffffff161415156107c157600080fd5b6080604051908101604052808281526020018473ffffffffffffffffffffffffffffffffffffffff168152602001600081526020016000600281111561080357fe5b815250600760008473ffffffffffffffffffffffffffffffffffffffff1673ffffffffffffffffffffffffffffffffffffffff1681526020019081526020016000206000820151816000015560208201518160010160006101000a81548173ffffffffffffffffffffffffffffffffffffffff021916908373ffffffffffffffffffffffffffffffffffffffff1602179055506040820151816002015560608201518160030160006101000a81548160ff021916908360028111156108c457fe5b0217905550905050600180548060010182816108e09190610d99565b9160005260206000209001600084909190916101000a81548173ffffffffffffffffffffffffffffffffffffffff021916908373ffffffffffffffffffffffffffffffffffffffff160217905550508060045403600481905550505050565b6000600180549050905090565b60076020528060005260406000206000915090508060000154908060010160009054906101000a900473ffffffffffffffffffffffffffffffffffffffff16908060020154908060030160009054906101000a900460ff16905084565b6001818154811015156109b857fe5b90600052602060002090016000915054906101000a900473ffffffffffffffffffffffffffffffffffffffff1681565b6000806000809054906101000a900473ffffffffffffffffffffffffffffffffffffffff1673ffffffffffffffffffffffffffffffffffffffff163373ffffffffffffffffffffffffffffffffffffffff16141515610a4657600080fd5b610a8d600760008573ffffffffffffffffffffffffffffffffffffffff1673ffffffffffffffffffffffffffffffffffffffff168152602001908152602001600020610d50565b9050610a97610bac565b600760008573ffffffffffffffffffffffffffffffffffffffff1673ffffffffffffffffffffffffffffffffffffffff1681526020019081526020016000206002018190555080915050919050565b60045481565b60065481565b6000809054906101000a900473ffffffffffffffffffffffffffffffffffffffff1681565b60025481565b600080600760008473ffffffffffffffffffffffffffffffffffffffff1673ffffffffffffffffffffffffffffffffffffffff168152602001908152602001600020905060016002811115610b6e57fe5b8160030160009054906101000a900460ff166002811115610b8b57fe5b1415610ba157610b9a81610d50565b9150610ba6565b600091505b50919050565b600080603c600354026006544203811515610bc357fe5b0490508091505090565b6000809054906101000a900473ffffffffffffffffffffffffffffffffffffffff1673ffffffffffffffffffffffffffffffffffffffff163373ffffffffffffffffffffffffffffffffffffffff16141515610c2857600080fd5b60006002811115610c3557fe5b600760008373ffffffffffffffffffffffffffffffffffffffff1673ffffffffffffffffffffffffffffffffffffffff16815260200190815260200160002060030160009054906101000a900460ff166002811115610c9057fe5b141515610c9c57600080fd5b6002600760008373ffffffffffffffffffffffffffffffffffffffff1673ffffffffffffffffffffffffffffffffffffffff16815260200190815260200160002060030160006101000a81548160ff02191690836002811115610cfb57fe5b0217905550600760008273ffffffffffffffffffffffffffffffffffffffff1673ffffffffffffffffffffffffffffffffffffffff168152602001908152602001600020600001546004540160048190555050565b600080610d66610d5e610bac565b600254610d7d565b905082600001548360020154820302915050919050565b600081831115610d8f57819050610d93565b8290505b92915050565b815481835581811511610dc057818360005260206000209182019101610dbf9190610dc5565b5b505050565b610de791905b80821115610de3576000816000905550600101610dcb565b5090565b905600a165627a7a72305820b9521b72ba0e45b208549f13f67ebb5d287ffed4b8fe3488ecb9d180459a37870029606060405233600460006101000a81548173ffffffffffffffffffffffffffffffffffffffff021916908373ffffffffffffffffffffffffffffffffffffffff160217905550341561005057600080fd5b604051602080610a7783398101604052808051906020019091905050336000806101000a81548173ffffffffffffffffffffffffffffffffffffffff021916908373ffffffffffffffffffffffffffffffffffffffff1602179055506000809054906101000a900473ffffffffffffffffffffffffffffffffffffffff1673ffffffffffffffffffffffffffffffffffffffff163373ffffffffffffffffffffffffffffffffffffffff1614151561010757600080fd5b80600281905550506109598061011e6000396000f30060606040526004361061008e576000357c0100000000000000000000000000000000000000000000000000000000900463ffffffff168063257ef522146100935780633f352bc0146100cc5780634f22bcf8146100f5578063639bd0bf1461015857806378f8eea81461019a5780638da5cb5b146101c35780639441294314610218578063be0f27cf146102ad575b600080fd5b341561009e57600080fd5b6100ca600480803573ffffffffffffffffffffffffffffffffffffffff169060200190919050506102e6565b005b34156100d757600080fd5b6100df61041c565b6040518082815260200191505060405180910390f35b341561010057600080fd5b6101166004808035906020019091905050610429565b604051808273ffffffffffffffffffffffffffffffffffffffff1673ffffffffffffffffffffffffffffffffffffffff16815260200191505060405180910390f35b341561016357600080fd5b610198600480803573ffffffffffffffffffffffffffffffffffffffff16906020019091908035906020019091905050610468565b005b34156101a557600080fd5b6101ad6106d6565b6040518082815260200191505060405180910390f35b34156101ce57600080fd5b6101d66106dc565b604051808273ffffffffffffffffffffffffffffffffffffffff1673ffffffffffffffffffffffffffffffffffffffff16815260200191505060405180910390f35b341561022357600080fd5b61024f600480803573ffffffffffffffffffffffffffffffffffffffff16906020019091905050610702565b604051808481526020018373ffffffffffffffffffffffffffffffffffffffff1673ffffffffffffffffffffffffffffffffffffffff16815260200182600281111561029757fe5b60ff168152602001935050505060405180910390f35b34156102b857600080fd5b6102e4600480803573ffffffffffffffffffffffffffffffffffffffff16906020019091905050610759565b005b6000809054906101000a900473ffffffffffffffffffffffffffffffffffffffff1673ffffffffffffffffffffffffffffffffffffffff163373ffffffffffffffffffffffffffffffffffffffff1614151561034157600080fd5b6000600281111561034e57fe5b600360008373ffffffffffffffffffffffffffffffffffffffff1673ffffffffffffffffffffffffffffffffffffffff16815260200190815260200160002060010160149054906101000a900460ff1660028111156103a957fe5b1415156103b557600080fd5b6001600360008373ffffffffffffffffffffffffffffffffffffffff1673ffffffffffffffffffffffffffffffffffffffff16815260200190815260200160002060010160146101000a81548160ff0219169083600281111561041457fe5b021790555050565b6000600180549050905090565b60018181548110151561043857fe5b90600052602060002090016000915054906101000a900473ffffffffffffffffffffffffffffffffffffffff1681565b6000809054906101000a900473ffffffffffffffffffffffffffffffffffffffff1673ffffffffffffffffffffffffffffffffffffffff163373ffffffffffffffffffffffffffffffffffffffff161415156104c357600080fd5b6000811115156104d257600080fd5b60025481111515156104e357600080fd5b6000600360008473ffffffffffffffffffffffffffffffffffffffff1673ffffffffffffffffffffffffffffffffffffffff16815260200190815260200160002060010160009054906101000a900473ffffffffffffffffffffffffffffffffffffffff1673ffffffffffffffffffffffffffffffffffffffff1614151561056a57600080fd5b6060604051908101604052808281526020013373ffffffffffffffffffffffffffffffffffffffff168152602001600060028111156105a557fe5b815250600360008473ffffffffffffffffffffffffffffffffffffffff1673ffffffffffffffffffffffffffffffffffffffff1681526020019081526020016000206000820151816000015560208201518160010160006101000a81548173ffffffffffffffffffffffffffffffffffffffff021916908373ffffffffffffffffffffffffffffffffffffffff16021790555060408201518160010160146101000a81548160ff0219169083600281111561065c57fe5b02179055509050506001805480600101828161067891906108dc565b9160005260206000209001600084909190916101000a81548173ffffffffffffffffffffffffffffffffffffffff021916908373ffffffffffffffffffffffffffffffffffffffff1602179055505080600254036002819055505050565b60025481565b600460009054906101000a900473ffffffffffffffffffffffffffffffffffffffff1681565b60036020528060005260406000206000915090508060000154908060010160009054906101000a900473ffffffffffffffffffffffffffffffffffffffff16908060010160149054906101000a900460ff16905083565b6000809054906101000a900473ffffffffffffffffffffffffffffffffffffffff1673ffffffffffffffffffffffffffffffffffffffff163373ffffffffffffffffffffffffffffffffffffffff161415156107b457600080fd5b600060028111156107c157fe5b600360008373ffffffffffffffffffffffffffffffffffffffff1673ffffffffffffffffffffffffffffffffffffffff16815260200190815260200160002060010160149054906101000a900460ff16600281111561081c57fe5b14151561082857600080fd5b6002600360008373ffffffffffffffffffffffffffffffffffffffff1673ffffffffffffffffffffffffffffffffffffffff16815260200190815260200160002060010160146101000a81548160ff0219169083600281111561088757fe5b0217905550600360008273ffffffffffffffffffffffffffffffffffffffff1673ffffffffffffffffffffffffffffffffffffffff168152602001908152602001600020600001546002540160028190555050565b815481835581811511610903578183600052602060002091820191016109029190610908565b5b505050565b61092a91905b8082111561092657600081600090555060010161090e565b5090565b905600a165627a7a7230582046ed86c36c8b871c664ad101a974135453be861c86bdaa81264c9710ed6ef7c90029",
  "source": "pragma solidity ^0.4.11;\n\nimport \"./SplittableTokenAllocation.sol\";\nimport \"./ERC223MintableToken.sol\";\nimport \"./Signatures.sol\";\nimport \"./SplitTypes.sol\";\nimport \"./BountyTokenAllocation.sol\";\n\ncontract ExyToken is ERC223MintableToken {\n  uint public circulatingSupply;\n\n  Signatures private signatures;\n  SplittableTokenAllocation private partnerTokensAllocation;\n  SplittableTokenAllocation private companyTokensAllocation;\n  BountyTokenAllocation private bountyTokensAllocation;\n\n  /*\n   * ICO TOKENS\n   * 33%\n   *\n   * Ico tokens are sent to the ICO_TOKEN_ADDRESS immediately\n   * after ExyToken initialization\n   */ \n  uint constant ICO_TOKENS = 1000;\n  address constant ICO_TOKENS_ADDRESS = 0x123;\n\n  /*\n   * COMPANY TOKENS\n   * 33%\n   *\n   * Company tokens are being distrubited in 36 months\n   * Total tokens = COMPANY_TOKENS_PER_PERIOD * COMPANY_PERIODS\n   */\n  uint constant COMPANY_TOKENS_PER_PERIOD = 100;\n  uint constant COMPANY_PERIODS = 36;\n  uint constant MINUTES_IN_COMPANY_PERIOD = 1; //1 years / 12 / 1 minutes;\n\n  /*\n   * PARTNER TOKENS\n   * 30%\n   *\n   * Company tokens are avaialable after 18 months\n   * Total tokens = PARTNER_TOKENS_PER_PERIOD * PARTNER_PERIODS\n   */ \n  uint constant PARTNER_TOKENS_PER_PERIOD = 100;\n  uint constant PARTNER_PERIODS = 1;\n  uint constant MINUTES_IN_PARTNER_PERIOD = 1; //MINUTES_IN_COMPANY_PERIOD * 18;\n\n  /*\n   * BOUNTY TOKENS\n   * 30%\n   *\n   * Bounty tokens can be sent immediately after initialization\n   */ \n  uint constant BOUNTY_TOKENS = 1000;\n\n  /*\n   * MARKETING COST TOKENS \n   * 1%\n   *\n   * Tokens are sent to the MARKETING_COST_ADDRESS immediately\n   * after ExyToken initialization\n   */ \n  uint constant MARKETING_COST_TOKENS = 10;\n  address constant MARKETING_COST_ADDRESS = 0xdaF3c8d1B8E2d79D4ff7A0B3173Bea847549ED3e;\n\n  uint256 public initDate;\n\n  AllocationAddressList private allocationAddressList;\n\n  /**\n   * ExyToken contructor.\n   *\n   * Exy token contains allocations of:\n   * - partnerTokensAllocation\n   * - companyTokensAllocation\n   * - bountyTokensAllocation\n   *\n   * @param signaturer0 Address of first signaturer.\n   * @param signaturer1 Address of second signaturer.\n   * @param signaturer2 Address of third signaturer.\n   *\n   * Arguments in constructor are only for testing. When deploying\n   * on main net, please hardcode them inside:\n   * address signaturer0 = 0x0;\n   * address signaturer1 = 0x1;\n   * address signaturer2 = 0x2;\n   */\n  function ExyToken(address signaturer0, address signaturer1, address signaturer2) public {\n    name = \"Experty Token\";\n    symbol = \"EXY\";\n    decimals = 18;\n\n    initDate = block.timestamp;\n    signatures = new Signatures(signaturer0, signaturer1, signaturer2);\n    partnerTokensAllocation = new SplittableTokenAllocation(\n      COMPANY_TOKENS_PER_PERIOD,\n      COMPANY_PERIODS,\n      MINUTES_IN_COMPANY_PERIOD,\n      initDate);\n\n    companyTokensAllocation = new SplittableTokenAllocation(\n      PARTNER_TOKENS_PER_PERIOD,\n      PARTNER_PERIODS,\n      MINUTES_IN_PARTNER_PERIOD,\n      initDate);\n\n    bountyTokensAllocation = new BountyTokenAllocation(\n      BOUNTY_TOKENS\n    );\n\n    // minting marketing cost tokens\n    mint(MARKETING_COST_ADDRESS, MARKETING_COST_TOKENS);\n\n    // minting ICO tokens\n    mint(ICO_TOKENS_ADDRESS, ICO_TOKENS);\n  }\n\n  /**\n   * Adds a proposition of a company token split to companyTokensAllocation\n   */\n  function proposeCompanySplit(address _dest, uint _tokensPerPeriod) public onlySignaturer {\n    companyTokensAllocation.proposeSplit(msg.sender, _dest, _tokensPerPeriod);\n  }\n\n  /**\n   * Approves a proposition of a company token split\n   */\n  function approveCompanySplit(address _dest) public onlySignaturer {\n    companyTokensAllocation.approveSplit(msg.sender, _dest);\n  }\n\n  /**\n   * Return number of company allocations\n   * @return Length of company allocations\n   */\n  function getCompanyAllocationListLength() public view returns (uint) {\n    return companyTokensAllocation.getAllocationLength();\n  }\n\n  /**\n   * Given the index of the company allocation in allocationAddressList\n   * we find its reciepent address and return struct with informations\n   * about this allocation\n   *\n   * @param nr Index of allocation in allocationAddressList\n   * @return Information about company alloction\n   */\n  function getCompanyAllocation(uint nr) public view returns (uint, address, uint, SplitTypes.SplitState, address) {\n    address recipientAddress = companyTokensAllocation.allocationAddressList(nr);\n    var (tokensPerPeriod, proposalAddress, claimedPeriods, splitState) = companyTokensAllocation.splitOf(recipientAddress);\n    return (tokensPerPeriod, proposalAddress, claimedPeriods, splitState, recipientAddress);\n  }\n\n  /**\n   * Adds a proposition of a partner token split to companyTokensAllocation\n   */\n  function proposePartnerSplit(address _dest, uint _tokensPerPeriod) public onlySignaturer {\n    partnerTokensAllocation.proposeSplit(msg.sender, _dest, _tokensPerPeriod);\n  }\n\n  /**\n   * Approves a proposition of a partner token split\n   */\n  function approvePartnerSplit(address _dest) public onlySignaturer {\n    partnerTokensAllocation.approveSplit(msg.sender, _dest);\n  }\n\n  /**\n   * Return number of partner allocations\n   * @return Length of parnters allocations array\n   */\n  function getPartnerAllocationListLength() public view returns (uint) {\n    return partnerTokensAllocation.getAllocationLength();\n  }\n\n  /**\n   * Given the index of the partner allocation in allocationAddressList\n   * we find its reciepent address and return struct with informations\n   * about this allocation\n   *\n   * @param nr Index of allocation in allocationAddressList\n   * @return Information about partner alloction\n   */\n  function getPartnerAllocation(uint nr) public view returns (uint, address, uint, SplitTypes.SplitState, address) {\n    address recipientAddress = partnerTokensAllocation.allocationAddressList(nr);\n    var (tokensPerPeriod, proposalAddress, claimedPeriods, splitState) = partnerTokensAllocation.splitOf(recipientAddress);\n    return (tokensPerPeriod, proposalAddress, claimedPeriods, splitState, recipientAddress);\n  }\n\n  function proposeBountyTransfer(address _dest, uint _amount) public onlySignaturer {\n    bountyTokensAllocation.proposeBountyTransfer(_dest, _amount);\n  }\n\n  function approveBountyTransfer(address _dest) public onlySignaturer {\n    bountyTokensAllocation.approveBountyTransfer(_dest);\n  }\n  function getBountyAllocationListLength() public view returns (uint) {\n    return bountyTokensAllocation.getAllocationLength();\n  }\n\n  function getBountyAllocation(uint nr) public view returns (uint, address, SplitTypes.BountyState, address) {\n    address recipientAddress = bountyTokensAllocation.allocationAddressList(nr);\n    var (amount, proposalAddress, bountyState) = bountyTokensAllocation.bountyOf(recipientAddress);\n    return (amount, proposalAddress, bountyState, recipientAddress);\n  }\n\n  function mintMeTokens() public {\n    uint tokensToMint = 0;\n    uint parnterTokensToMint = partnerTokensAllocation.tokensToMint(msg.sender);\n    if (parnterTokensToMint > 0) {\n      tokensToMint = tokensToMint + partnerTokensAllocation.mint(msg.sender);\n    }\n    uint compnyTokensToMint = companyTokensAllocation.tokensToMint(msg.sender);\n    if (compnyTokensToMint > 0) {\n      tokensToMint = tokensToMint + companyTokensAllocation.mint(msg.sender);\n    }\n    if (tokensToMint > 0) {\n      mint(msg.sender, tokensToMint);\n    }\n  }\n\n  modifier onlySignaturer() {\n    require(signatures.exist(msg.sender));\n    _;\n  }\n}\n",
  "sourcePath": "/Users/albertbalinski/crypto/experty/experty-tge/contracts/ExyToken.sol",
  "compiler": {
    "name": "solc",
    "version": "0.4.18+commit.9cf6e910.Emscripten.clang"
  },
  "schemaVersion": "1.0.1",
  "updatedAt": "2018-01-23T09:27:20.069Z"
}