{
  "contractName": "MultisigExpertyEthControl",
  "abi": [
    {
      "constant": false,
      "inputs": [
        {
          "name": "txIdx",
          "type": "uint256"
        }
      ],
      "name": "signTx",
      "outputs": [],
      "payable": false,
      "stateMutability": "nonpayable",
      "type": "function"
    },
    {
      "constant": true,
      "inputs": [
        {
          "name": "",
          "type": "uint256"
        },
        {
          "name": "",
          "type": "address"
        }
      ],
      "name": "isSigned",
      "outputs": [
        {
          "name": "",
          "type": "bool"
        }
      ],
      "payable": false,
      "stateMutability": "view",
      "type": "function"
    },
    {
      "constant": false,
      "inputs": [
        {
          "name": "txIdx",
          "type": "uint256"
        }
      ],
      "name": "txCallAttemp",
      "outputs": [],
      "payable": false,
      "stateMutability": "nonpayable",
      "type": "function"
    },
    {
      "constant": true,
      "inputs": [
        {
          "name": "",
          "type": "uint256"
        }
      ],
      "name": "txSignatures",
      "outputs": [
        {
          "name": "",
          "type": "uint8"
        }
      ],
      "payable": false,
      "stateMutability": "view",
      "type": "function"
    },
    {
      "constant": false,
      "inputs": [
        {
          "name": "addr",
          "type": "address"
        }
      ],
      "name": "setExpertyTokenAddr",
      "outputs": [],
      "payable": false,
      "stateMutability": "nonpayable",
      "type": "function"
    },
    {
      "constant": false,
      "inputs": [
        {
          "name": "unlockedAddr",
          "type": "address"
        },
        {
          "name": "addr",
          "type": "address"
        },
        {
          "name": "fractionEXY",
          "type": "uint256"
        }
      ],
      "name": "proposeTx",
      "outputs": [],
      "payable": false,
      "stateMutability": "nonpayable",
      "type": "function"
    },
    {
      "constant": true,
      "inputs": [
        {
          "name": "",
          "type": "address"
        }
      ],
      "name": "isSignatory",
      "outputs": [
        {
          "name": "",
          "type": "bool"
        }
      ],
      "payable": false,
      "stateMutability": "view",
      "type": "function"
    },
    {
      "constant": false,
      "inputs": [
        {
          "name": "txIdx",
          "type": "uint256"
        }
      ],
      "name": "rejectTx",
      "outputs": [],
      "payable": false,
      "stateMutability": "nonpayable",
      "type": "function"
    },
    {
      "constant": true,
      "inputs": [
        {
          "name": "",
          "type": "uint256"
        }
      ],
      "name": "txs",
      "outputs": [
        {
          "name": "unlockedAddr",
          "type": "address"
        },
        {
          "name": "addr",
          "type": "address"
        },
        {
          "name": "fractionEXY",
          "type": "uint256"
        },
        {
          "name": "creator",
          "type": "address"
        },
        {
          "name": "rejected",
          "type": "bool"
        },
        {
          "name": "executed",
          "type": "bool"
        },
        {
          "name": "signatures",
          "type": "uint8"
        }
      ],
      "payable": false,
      "stateMutability": "view",
      "type": "function"
    },
    {
      "inputs": [],
      "payable": false,
      "stateMutability": "nonpayable",
      "type": "constructor"
    }
  ],
  "bytecode": "0x6060604052341561000f57600080fd5b600180600061012373ffffffffffffffffffffffffffffffffffffffff16815260200190815260200160002060006101000a81548160ff021916908315150217905550600180600061012373ffffffffffffffffffffffffffffffffffffffff16815260200190815260200160002060006101000a81548160ff021916908315150217905550600180600061012373ffffffffffffffffffffffffffffffffffffffff16815260200190815260200160002060006101000a81548160ff021916908315150217905550600180600061012373ffffffffffffffffffffffffffffffffffffffff16815260200190815260200160002060006101000a81548160ff021916908315150217905550600180600061012373ffffffffffffffffffffffffffffffffffffffff16815260200190815260200160002060006101000a81548160ff021916908315150217905550600180600061012373ffffffffffffffffffffffffffffffffffffffff16815260200190815260200160002060006101000a81548160ff02191690831515021790555060048060006101000a81548160ff021916908360ff160217905550610edb806101cb6000396000f300606060405260043610610099576000357c0100000000000000000000000000000000000000000000000000000000900463ffffffff16806309a7023b1461009e5780633e6d21fa146100c157806358e413af1461011b57806362f125c01461013e5780636dd47eff1461017b57806380e3be63146101b45780639abd4dd914610215578063ddf6874e14610266578063f5715d5614610289575b600080fd5b34156100a957600080fd5b6100bf600480803590602001909190505061037c565b005b34156100cc57600080fd5b610101600480803590602001909190803573ffffffffffffffffffffffffffffffffffffffff16906020019091905050610539565b604051808215151515815260200191505060405180910390f35b341561012657600080fd5b61013c6004808035906020019091905050610568565b005b341561014957600080fd5b61015f600480803590602001909190505061076d565b604051808260ff1660ff16815260200191505060405180910390f35b341561018657600080fd5b6101b2600480803573ffffffffffffffffffffffffffffffffffffffff1690602001909190505061078d565b005b34156101bf57600080fd5b610213600480803573ffffffffffffffffffffffffffffffffffffffff1690602001909190803573ffffffffffffffffffffffffffffffffffffffff169060200190919080359060200190919050506108a8565b005b341561022057600080fd5b61024c600480803573ffffffffffffffffffffffffffffffffffffffff16906020019091905050610b2b565b604051808215151515815260200191505060405180910390f35b341561027157600080fd5b6102876004808035906020019091905050610b4b565b005b341561029457600080fd5b6102aa6004808035906020019091905050610ccd565b604051808873ffffffffffffffffffffffffffffffffffffffff1673ffffffffffffffffffffffffffffffffffffffff1681526020018773ffffffffffffffffffffffffffffffffffffffff1673ffffffffffffffffffffffffffffffffffffffff1681526020018681526020018573ffffffffffffffffffffffffffffffffffffffff1673ffffffffffffffffffffffffffffffffffffffff16815260200184151515158152602001831515151581526020018260ff1660ff16815260200197505050505050505060405180910390f35b600160003373ffffffffffffffffffffffffffffffffffffffff1673ffffffffffffffffffffffffffffffffffffffff16815260200190815260200160002060009054906101000a900460ff1615156103d457600080fd5b3273ffffffffffffffffffffffffffffffffffffffff163373ffffffffffffffffffffffffffffffffffffffff1614151561040e57600080fd5b6002600082815260200190815260200160002060003373ffffffffffffffffffffffffffffffffffffffff1673ffffffffffffffffffffffffffffffffffffffff16815260200190815260200160002060009054906101000a900460ff1615151561047857600080fd5b60016002600083815260200190815260200160002060003373ffffffffffffffffffffffffffffffffffffffff1673ffffffffffffffffffffffffffffffffffffffff16815260200190815260200160002060006101000a81548160ff02191690831515021790555060016005828154811015156104f257fe5b906000526020600020906004020160030160168282829054906101000a900460ff160192506101000a81548160ff021916908360ff16021790555061053681610568565b50565b60026020528160005260406000206020528060005260406000206000915091509054906101000a900460ff1681565b600060058281548110151561057957fe5b906000526020600020906004020160030160169054906101000a900460ff1660ff16600460009054906101000a900460ff1660ff16111515156105bb57600080fd5b6000809054906101000a900473ffffffffffffffffffffffffffffffffffffffff1690508073ffffffffffffffffffffffffffffffffffffffff16639501aa6160058481548110151561060a57fe5b906000526020600020906004020160000160009054906101000a900473ffffffffffffffffffffffffffffffffffffffff1660058581548110151561064b57fe5b906000526020600020906004020160010160009054906101000a900473ffffffffffffffffffffffffffffffffffffffff1660058681548110151561068c57fe5b9060005260206000209060040201600201546040518463ffffffff167c0100000000000000000000000000000000000000000000000000000000028152600401808473ffffffffffffffffffffffffffffffffffffffff1673ffffffffffffffffffffffffffffffffffffffff1681526020018373ffffffffffffffffffffffffffffffffffffffff1673ffffffffffffffffffffffffffffffffffffffff1681526020018281526020019350505050600060405180830381600087803b151561075557600080fd5b6102c65a03f1151561076657600080fd5b5050505050565b60036020528060005260406000206000915054906101000a900460ff1681565b600160003373ffffffffffffffffffffffffffffffffffffffff1673ffffffffffffffffffffffffffffffffffffffff16815260200190815260200160002060009054906101000a900460ff1615156107e557600080fd5b3273ffffffffffffffffffffffffffffffffffffffff163373ffffffffffffffffffffffffffffffffffffffff1614151561081f57600080fd5b60008060009054906101000a900473ffffffffffffffffffffffffffffffffffffffff1673ffffffffffffffffffffffffffffffffffffffff1614151561086557600080fd5b806000806101000a81548173ffffffffffffffffffffffffffffffffffffffff021916908373ffffffffffffffffffffffffffffffffffffffff16021790555050565b600160003373ffffffffffffffffffffffffffffffffffffffff1673ffffffffffffffffffffffffffffffffffffffff16815260200190815260200160002060009054906101000a900460ff16151561090057600080fd5b3273ffffffffffffffffffffffffffffffffffffffff163373ffffffffffffffffffffffffffffffffffffffff1614151561093a57600080fd5b6005805480600101828161094e9190610da5565b9160005260206000209060040201600060e0604051908101604052808773ffffffffffffffffffffffffffffffffffffffff1681526020018673ffffffffffffffffffffffffffffffffffffffff1681526020018581526020013373ffffffffffffffffffffffffffffffffffffffff168152602001600015158152602001600015158152602001600060ff16815250909190915060008201518160000160006101000a81548173ffffffffffffffffffffffffffffffffffffffff021916908373ffffffffffffffffffffffffffffffffffffffff16021790555060208201518160010160006101000a81548173ffffffffffffffffffffffffffffffffffffffff021916908373ffffffffffffffffffffffffffffffffffffffff1602179055506040820151816002015560608201518160030160006101000a81548173ffffffffffffffffffffffffffffffffffffffff021916908373ffffffffffffffffffffffffffffffffffffffff16021790555060808201518160030160146101000a81548160ff02191690831515021790555060a08201518160030160156101000a81548160ff02191690831515021790555060c08201518160030160166101000a81548160ff021916908360ff160217905550505050505050565b60016020528060005260406000206000915054906101000a900460ff1681565b600160003373ffffffffffffffffffffffffffffffffffffffff1673ffffffffffffffffffffffffffffffffffffffff16815260200190815260200160002060009054906101000a900460ff161515610ba357600080fd5b3273ffffffffffffffffffffffffffffffffffffffff163373ffffffffffffffffffffffffffffffffffffffff16141515610bdd57600080fd5b3373ffffffffffffffffffffffffffffffffffffffff16600582815481101515610c0357fe5b906000526020600020906004020160030160009054906101000a900473ffffffffffffffffffffffffffffffffffffffff1673ffffffffffffffffffffffffffffffffffffffff16141515610c5757600080fd5b600581815481101515610c6657fe5b906000526020600020906004020160030160159054906101000a900460ff16151515610c9157600080fd5b6001600582815481101515610ca257fe5b906000526020600020906004020160030160146101000a81548160ff02191690831515021790555050565b600581815481101515610cdc57fe5b90600052602060002090600402016000915090508060000160009054906101000a900473ffffffffffffffffffffffffffffffffffffffff16908060010160009054906101000a900473ffffffffffffffffffffffffffffffffffffffff16908060020154908060030160009054906101000a900473ffffffffffffffffffffffffffffffffffffffff16908060030160149054906101000a900460ff16908060030160159054906101000a900460ff16908060030160169054906101000a900460ff16905087565b815481835581811511610dd257600402816004028360005260206000209182019101610dd19190610dd7565b5b505050565b610eac91905b80821115610ea857600080820160006101000a81549073ffffffffffffffffffffffffffffffffffffffff02191690556001820160006101000a81549073ffffffffffffffffffffffffffffffffffffffff021916905560028201600090556003820160006101000a81549073ffffffffffffffffffffffffffffffffffffffff02191690556003820160146101000a81549060ff02191690556003820160156101000a81549060ff02191690556003820160166101000a81549060ff021916905550600401610ddd565b5090565b905600a165627a7a7230582022412c80a389133002bc7d5065ebbeb96a7fcdfea644b0291edca33583a615c50029",
  "source": "pragma solidity ^0.4.11;\n\n// experty token contract\ncontract ExpertyToken {\n  function splitPartnersAllocation(address unlockedAddr, address addr, uint256 fractionEXY) public;\n}\n\n// multisignature contract, that is able to control\n// ethers stored in experty token contract\ncontract MultisigExpertyEthControl {\n\n  address expertyTokenAddr;\n\n  mapping (address => bool) public isSignatory;\n\n  mapping (uint => mapping (address => bool)) public isSigned;\n\n  mapping(uint256 => uint8) public txSignatures;\n\n  uint8 requiredSignatures;\n\n  struct Tx {\n    address unlockedAddr;\n    address addr;\n    uint256 fractionEXY;\n    address creator;\n    bool rejected;\n    bool executed;\n    uint8 signatures;\n  }\n  Tx[] public txs;\n\n  // 4 from 6 multisig wallet\n  function MultisigExpertyEthControl() public {\n    // 6 signatories:\n    // 3 from Bitcoin Suisse:\n    isSignatory[0x123] = true;\n    isSignatory[0x123] = true;\n    isSignatory[0x123] = true;\n    // 3 from Experty AG:\n    isSignatory[0x123] = true;\n    isSignatory[0x123] = true;\n    isSignatory[0x123] = true;\n\n    // set required signatures\n    requiredSignatures = 4;\n  }\n\n  // set experty token address after deploying experty token contract\n  function setExpertyTokenAddr(address addr) public onlySignatory {\n    // experty token address can be set only once after deploy;\n    require(expertyTokenAddr == 0x0);\n    expertyTokenAddr = addr;\n  }\n\n  // propose tx transaction from experty token contract\n  function proposeTx(address unlockedAddr, address addr, uint256 fractionEXY) public onlySignatory {\n    txs.push(Tx({\n      unlockedAddr: unlockedAddr,\n      addr: addr,\n      fractionEXY: fractionEXY,\n      creator: msg.sender,\n      rejected: false,\n      executed: false,\n      signatures: 0\n    }));\n  }\n\n  // reject proposed transaction\n  function rejectTx(uint txIdx) public onlySignatory {\n    // only creator of transaction can reject it\n    require(txs[txIdx].creator == msg.sender);\n    // reject only not executed transactions\n    require(!txs[txIdx].executed);\n    txs[txIdx].rejected = true;\n  }\n\n  // sign specified transaction\n  function signTx(uint txIdx) public onlySignatory {\n    // transaction can be signed once by any participant\n    require(!isSigned[txIdx][msg.sender]);\n\n    isSigned[txIdx][msg.sender] = true;\n    txs[txIdx].signatures += 1;\n\n    txCallAttemp(txIdx);\n  }\n\n  // try to call tx function\n  function txCallAttemp(uint txIdx) public {\n    // check if there is enough number of signatures\n    require(requiredSignatures <= txs[txIdx].signatures);\n\n    ExpertyToken experty = ExpertyToken(expertyTokenAddr);\n    experty.splitPartnersAllocation(txs[txIdx].unlockedAddr, txs[txIdx].addr, txs[txIdx].fractionEXY);\n  }\n\n  // only signatory can call this\n  modifier onlySignatory() {\n    require(isSignatory[msg.sender]);\n    // make sure, that it is direct call of the function\n    // and it is not called by any contract\n    require(msg.sender == tx.origin);\n    _;\n  }\n}\n",
  "sourcePath": "/Users/ja/Desktop/sol/experty-tge/contracts/multisig-experty-locked-exy-control.sol",
  "compiler": {
    "name": "solc",
    "version": "0.4.18+commit.9cf6e910.Emscripten.clang"
  },
  "schemaVersion": "1.0.1",
  "updatedAt": "2018-01-15T10:13:04.468Z"
}