{
  "contractName": "Signatures",
  "abi": [
    {
      "constant": true,
      "inputs": [
        {
          "name": "",
          "type": "address"
        }
      ],
      "name": "exist",
      "outputs": [
        {
          "name": "",
          "type": "bool"
        }
      ],
      "payable": false,
      "stateMutability": "view",
      "type": "function"
    },
    {
      "inputs": [
        {
          "name": "_account0",
          "type": "address"
        },
        {
          "name": "_account1",
          "type": "address"
        },
        {
          "name": "_account2",
          "type": "address"
        }
      ],
      "payable": false,
      "stateMutability": "nonpayable",
      "type": "constructor"
    }
  ],
  "bytecode": "0x6060604052341561000f57600080fd5b6040516060806102318339810160405280805190602001909190805190602001909190805190602001909190505060016000808573ffffffffffffffffffffffffffffffffffffffff1673ffffffffffffffffffffffffffffffffffffffff16815260200190815260200160002060006101000a81548160ff02191690831515021790555060016000808473ffffffffffffffffffffffffffffffffffffffff1673ffffffffffffffffffffffffffffffffffffffff16815260200190815260200160002060006101000a81548160ff02191690831515021790555060016000808373ffffffffffffffffffffffffffffffffffffffff1673ffffffffffffffffffffffffffffffffffffffff16815260200190815260200160002060006101000a81548160ff02191690831515021790555050505060de806101536000396000f300606060405260043610603f576000357c0100000000000000000000000000000000000000000000000000000000900463ffffffff1680634dfefc4b146044575b600080fd5b3415604e57600080fd5b6078600480803573ffffffffffffffffffffffffffffffffffffffff169060200190919050506092565b604051808215151515815260200191505060405180910390f35b60006020528060005260406000206000915054906101000a900460ff16815600a165627a7a72305820509bca10657c02d70bf37c059068ca32d558a7cc1d7bcf51f91bca604753d94d0029",
  "source": "pragma solidity ^0.4.4;\n\n\ncontract Signatures {\n  mapping (address => bool) public exist;\n\n  /**\n   * Multisig contructor. Creates exist map with addresses of\n   * founders wallets. For each action we will need 2 out of 3 signatures\n   *\n   * @param _account0 - The address of first signaturer.\n   * @param _account1 - The address of senod signaturer.\n   * @param _account2 - The address of third signaturer.\n   */\n  function Signatures(address _account0, address _account1, address _account2) public {\n    exist[_account0] = true;\n    exist[_account1] = true;\n    exist[_account2] = true;\n  }\n\n}",
  "sourcePath": "/Users/albertbalinski/crypto/experty/experty-tge/contracts/Signatures.sol",
  "compiler": {
    "name": "solc",
    "version": "0.4.18+commit.9cf6e910.Emscripten.clang"
  },
  "schemaVersion": "1.0.1",
  "updatedAt": "2018-01-23T09:27:20.066Z"
}