{
  "contractName": "SplittableTokenAllocation",
  "abi": [
    {
      "constant": false,
      "inputs": [
        {
          "name": "_approverAddress",
          "type": "address"
        },
        {
          "name": "_address",
          "type": "address"
        }
      ],
      "name": "approveSplit",
      "outputs": [],
      "payable": false,
      "stateMutability": "nonpayable",
      "type": "function"
    },
    {
      "constant": true,
      "inputs": [],
      "name": "totalSupply",
      "outputs": [
        {
          "name": "",
          "type": "uint256"
        }
      ],
      "payable": false,
      "stateMutability": "view",
      "type": "function"
    },
    {
      "constant": true,
      "inputs": [],
      "name": "minutesInPeriod",
      "outputs": [
        {
          "name": "",
          "type": "uint256"
        }
      ],
      "payable": false,
      "stateMutability": "view",
      "type": "function"
    },
    {
      "constant": false,
      "inputs": [
        {
          "name": "_proposerAddress",
          "type": "address"
        },
        {
          "name": "_dest",
          "type": "address"
        },
        {
          "name": "_tokensPerPeriod",
          "type": "uint256"
        }
      ],
      "name": "proposeSplit",
      "outputs": [],
      "payable": false,
      "stateMutability": "nonpayable",
      "type": "function"
    },
    {
      "constant": true,
      "inputs": [],
      "name": "getAllocationLength",
      "outputs": [
        {
          "name": "",
          "type": "uint256"
        }
      ],
      "payable": false,
      "stateMutability": "view",
      "type": "function"
    },
    {
      "constant": true,
      "inputs": [
        {
          "name": "",
          "type": "address"
        }
      ],
      "name": "splitOf",
      "outputs": [
        {
          "name": "tokensPerPeriod",
          "type": "uint256"
        },
        {
          "name": "proposerAddress",
          "type": "address"
        },
        {
          "name": "claimedPeriods",
          "type": "uint256"
        },
        {
          "name": "splitState",
          "type": "uint8"
        }
      ],
      "payable": false,
      "stateMutability": "view",
      "type": "function"
    },
    {
      "constant": true,
      "inputs": [
        {
          "name": "",
          "type": "uint256"
        }
      ],
      "name": "allocationAddressList",
      "outputs": [
        {
          "name": "",
          "type": "address"
        }
      ],
      "payable": false,
      "stateMutability": "view",
      "type": "function"
    },
    {
      "constant": false,
      "inputs": [
        {
          "name": "_address",
          "type": "address"
        }
      ],
      "name": "mint",
      "outputs": [
        {
          "name": "",
          "type": "uint256"
        }
      ],
      "payable": false,
      "stateMutability": "nonpayable",
      "type": "function"
    },
    {
      "constant": true,
      "inputs": [],
      "name": "remainingTokensPerPeriod",
      "outputs": [
        {
          "name": "",
          "type": "uint256"
        }
      ],
      "payable": false,
      "stateMutability": "view",
      "type": "function"
    },
    {
      "constant": true,
      "inputs": [],
      "name": "initTimestamp",
      "outputs": [
        {
          "name": "",
          "type": "uint256"
        }
      ],
      "payable": false,
      "stateMutability": "view",
      "type": "function"
    },
    {
      "constant": true,
      "inputs": [],
      "name": "owner",
      "outputs": [
        {
          "name": "",
          "type": "address"
        }
      ],
      "payable": false,
      "stateMutability": "view",
      "type": "function"
    },
    {
      "constant": true,
      "inputs": [],
      "name": "periods",
      "outputs": [
        {
          "name": "",
          "type": "uint256"
        }
      ],
      "payable": false,
      "stateMutability": "view",
      "type": "function"
    },
    {
      "constant": true,
      "inputs": [
        {
          "name": "_address",
          "type": "address"
        }
      ],
      "name": "tokensToMint",
      "outputs": [
        {
          "name": "",
          "type": "uint256"
        }
      ],
      "payable": false,
      "stateMutability": "view",
      "type": "function"
    },
    {
      "constant": true,
      "inputs": [],
      "name": "_periodsElapsed",
      "outputs": [
        {
          "name": "",
          "type": "uint256"
        }
      ],
      "payable": false,
      "stateMutability": "view",
      "type": "function"
    },
    {
      "constant": false,
      "inputs": [
        {
          "name": "_address",
          "type": "address"
        }
      ],
      "name": "rejectSplit",
      "outputs": [],
      "payable": false,
      "stateMutability": "nonpayable",
      "type": "function"
    },
    {
      "inputs": [
        {
          "name": "_tokensPerPeriod",
          "type": "uint256"
        },
        {
          "name": "_periods",
          "type": "uint256"
        },
        {
          "name": "_minutesInPeriod",
          "type": "uint256"
        },
        {
          "name": "_initalTimestamp",
          "type": "uint256"
        }
      ],
      "payable": false,
      "stateMutability": "nonpayable",
      "type": "constructor"
    }
  ],
  "bytecode": "0x6060604052341561000f57600080fd5b604051608080610ed483398101604052808051906020019091908051906020019091908051906020019091908051906020019091905050336000806101000a81548173ffffffffffffffffffffffffffffffffffffffff021916908373ffffffffffffffffffffffffffffffffffffffff1602179055508284026005819055508260028190555081600381905550836004819055508060068190555050505050610e16806100be6000396000f3006060604052600436106100db576000357c0100000000000000000000000000000000000000000000000000000000900463ffffffff16806303cd80de146100e057806318160ddd146101385780631d81564d146101615780632ea8614b1461018a5780633f352bc0146101eb57806341890891146102145780634f22bcf8146102b05780636a627842146103135780636db66268146103605780637358c57a146103895780638da5cb5b146103b2578063a4caeb4214610407578063b58ba30f14610430578063c7fec6b61461047d578063ecc5a41f146104a6575b600080fd5b34156100eb57600080fd5b610136600480803573ffffffffffffffffffffffffffffffffffffffff1690602001909190803573ffffffffffffffffffffffffffffffffffffffff169060200190919050506104df565b005b341561014357600080fd5b61014b6106b3565b6040518082815260200191505060405180910390f35b341561016c57600080fd5b6101746106b9565b6040518082815260200191505060405180910390f35b341561019557600080fd5b6101e9600480803573ffffffffffffffffffffffffffffffffffffffff1690602001909190803573ffffffffffffffffffffffffffffffffffffffff169060200190919080359060200190919050506106bf565b005b34156101f657600080fd5b6101fe61093f565b6040518082815260200191505060405180910390f35b341561021f57600080fd5b61024b600480803573ffffffffffffffffffffffffffffffffffffffff1690602001909190505061094c565b604051808581526020018473ffffffffffffffffffffffffffffffffffffffff1673ffffffffffffffffffffffffffffffffffffffff16815260200183815260200182600281111561029957fe5b60ff16815260200194505050505060405180910390f35b34156102bb57600080fd5b6102d160048080359060200190919050506109a9565b604051808273ffffffffffffffffffffffffffffffffffffffff1673ffffffffffffffffffffffffffffffffffffffff16815260200191505060405180910390f35b341561031e57600080fd5b61034a600480803573ffffffffffffffffffffffffffffffffffffffff169060200190919050506109e8565b6040518082815260200191505060405180910390f35b341561036b57600080fd5b610373610ae6565b6040518082815260200191505060405180910390f35b341561039457600080fd5b61039c610aec565b6040518082815260200191505060405180910390f35b34156103bd57600080fd5b6103c5610af2565b604051808273ffffffffffffffffffffffffffffffffffffffff1673ffffffffffffffffffffffffffffffffffffffff16815260200191505060405180910390f35b341561041257600080fd5b61041a610b17565b6040518082815260200191505060405180910390f35b341561043b57600080fd5b610467600480803573ffffffffffffffffffffffffffffffffffffffff16906020019091905050610b1d565b6040518082815260200191505060405180910390f35b341561048857600080fd5b610490610bac565b6040518082815260200191505060405180910390f35b34156104b157600080fd5b6104dd600480803573ffffffffffffffffffffffffffffffffffffffff16906020019091905050610bcd565b005b6000809054906101000a900473ffffffffffffffffffffffffffffffffffffffff1673ffffffffffffffffffffffffffffffffffffffff163373ffffffffffffffffffffffffffffffffffffffff1614151561053a57600080fd5b6000600281111561054757fe5b600760008373ffffffffffffffffffffffffffffffffffffffff1673ffffffffffffffffffffffffffffffffffffffff16815260200190815260200160002060030160009054906101000a900460ff1660028111156105a257fe5b1415156105ae57600080fd5b8173ffffffffffffffffffffffffffffffffffffffff16600760008373ffffffffffffffffffffffffffffffffffffffff1673ffffffffffffffffffffffffffffffffffffffff16815260200190815260200160002060010160009054906101000a900473ffffffffffffffffffffffffffffffffffffffff1673ffffffffffffffffffffffffffffffffffffffff161415151561064b57600080fd5b6001600760008373ffffffffffffffffffffffffffffffffffffffff1673ffffffffffffffffffffffffffffffffffffffff16815260200190815260200160002060030160006101000a81548160ff021916908360028111156106aa57fe5b02179055505050565b60055481565b60035481565b6000809054906101000a900473ffffffffffffffffffffffffffffffffffffffff1673ffffffffffffffffffffffffffffffffffffffff163373ffffffffffffffffffffffffffffffffffffffff1614151561071a57600080fd5b60008111151561072957600080fd5b600454811115151561073a57600080fd5b6000600760008473ffffffffffffffffffffffffffffffffffffffff1673ffffffffffffffffffffffffffffffffffffffff16815260200190815260200160002060010160009054906101000a900473ffffffffffffffffffffffffffffffffffffffff1673ffffffffffffffffffffffffffffffffffffffff161415156107c157600080fd5b6080604051908101604052808281526020018473ffffffffffffffffffffffffffffffffffffffff168152602001600081526020016000600281111561080357fe5b815250600760008473ffffffffffffffffffffffffffffffffffffffff1673ffffffffffffffffffffffffffffffffffffffff1681526020019081526020016000206000820151816000015560208201518160010160006101000a81548173ffffffffffffffffffffffffffffffffffffffff021916908373ffffffffffffffffffffffffffffffffffffffff1602179055506040820151816002015560608201518160030160006101000a81548160ff021916908360028111156108c457fe5b0217905550905050600180548060010182816108e09190610d99565b9160005260206000209001600084909190916101000a81548173ffffffffffffffffffffffffffffffffffffffff021916908373ffffffffffffffffffffffffffffffffffffffff160217905550508060045403600481905550505050565b6000600180549050905090565b60076020528060005260406000206000915090508060000154908060010160009054906101000a900473ffffffffffffffffffffffffffffffffffffffff16908060020154908060030160009054906101000a900460ff16905084565b6001818154811015156109b857fe5b90600052602060002090016000915054906101000a900473ffffffffffffffffffffffffffffffffffffffff1681565b6000806000809054906101000a900473ffffffffffffffffffffffffffffffffffffffff1673ffffffffffffffffffffffffffffffffffffffff163373ffffffffffffffffffffffffffffffffffffffff16141515610a4657600080fd5b610a8d600760008573ffffffffffffffffffffffffffffffffffffffff1673ffffffffffffffffffffffffffffffffffffffff168152602001908152602001600020610d50565b9050610a97610bac565b600760008573ffffffffffffffffffffffffffffffffffffffff1673ffffffffffffffffffffffffffffffffffffffff1681526020019081526020016000206002018190555080915050919050565b60045481565b60065481565b6000809054906101000a900473ffffffffffffffffffffffffffffffffffffffff1681565b60025481565b600080600760008473ffffffffffffffffffffffffffffffffffffffff1673ffffffffffffffffffffffffffffffffffffffff168152602001908152602001600020905060016002811115610b6e57fe5b8160030160009054906101000a900460ff166002811115610b8b57fe5b1415610ba157610b9a81610d50565b9150610ba6565b600091505b50919050565b600080603c600354026006544203811515610bc357fe5b0490508091505090565b6000809054906101000a900473ffffffffffffffffffffffffffffffffffffffff1673ffffffffffffffffffffffffffffffffffffffff163373ffffffffffffffffffffffffffffffffffffffff16141515610c2857600080fd5b60006002811115610c3557fe5b600760008373ffffffffffffffffffffffffffffffffffffffff1673ffffffffffffffffffffffffffffffffffffffff16815260200190815260200160002060030160009054906101000a900460ff166002811115610c9057fe5b141515610c9c57600080fd5b6002600760008373ffffffffffffffffffffffffffffffffffffffff1673ffffffffffffffffffffffffffffffffffffffff16815260200190815260200160002060030160006101000a81548160ff02191690836002811115610cfb57fe5b0217905550600760008273ffffffffffffffffffffffffffffffffffffffff1673ffffffffffffffffffffffffffffffffffffffff168152602001908152602001600020600001546004540160048190555050565b600080610d66610d5e610bac565b600254610d7d565b905082600001548360020154820302915050919050565b600081831115610d8f57819050610d93565b8290505b92915050565b815481835581811511610dc057818360005260206000209182019101610dbf9190610dc5565b5b505050565b610de791905b80821115610de3576000816000905550600101610dcb565b5090565b905600a165627a7a72305820b9521b72ba0e45b208549f13f67ebb5d287ffed4b8fe3488ecb9d180459a37870029",
  "source": "pragma solidity ^0.4.4;\n\nimport \"./SafeMath.sol\";\nimport \"./Ownable.sol\";\nimport \"./AllocationAddressList.sol\";\nimport \"./SplitTypes.sol\";\n\ncontract SplittableTokenAllocation is Ownable, AllocationAddressList {\n\n  // This contract describes how the tokens are being released in time\n\n  // How many distributions periods there are\n  uint public periods;\n  // How long is one interval\n  uint public minutesInPeriod;\n  // Total amount of remaining tokens to be distributed\n  uint public remainingTokensPerPeriod;\n  // Total amount of all tokens\n  uint public totalSupply;\n  // Inital timestamp\n  uint public initTimestamp;\n\n  // For each address we can add exactly one possible split.\n  // If we try to add another proposal on existing address it will be rejected\n  mapping (address => SplitTypes.SplitT) public splitOf;\n\n  /**\n   * SplittableTokenAllocation contructor.\n   * RemainingTokensPerPeriod variable which represents\n   * the remaining amount of tokens to be distributed\n   */\n  // Invoking parent constructor (OwnedBySignaturers) with signatures addresses\n  function SplittableTokenAllocation(uint _tokensPerPeriod, uint _periods, uint _minutesInPeriod, uint _initalTimestamp)  Ownable() public {\n    totalSupply = _tokensPerPeriod * _periods;\n    periods = _periods;\n    minutesInPeriod = _minutesInPeriod;\n    remainingTokensPerPeriod = _tokensPerPeriod;\n    initTimestamp = _initalTimestamp;\n  }\n\n  /**\n   * Propose split method adds proposal to the splits Array.\n   *\n   * @param _dest              - address of the new receiver\n   * @param _tokensPerPeriod   - how many tokens we are giving to dest\n   */\n  function proposeSplit(address _proposerAddress, address _dest, uint _tokensPerPeriod) public onlyOwner {\n    require(_tokensPerPeriod > 0);\n    require(_tokensPerPeriod <= remainingTokensPerPeriod);\n    // In solidity there is no \"exist\" method on a map key.\n    // We can't overwrite existing proposal, so we are checking if it is the default value (0x0)\n    require(splitOf[_dest].proposerAddress == 0x0);\n\n    splitOf[_dest] = SplitTypes.SplitT({\n      tokensPerPeriod: _tokensPerPeriod,\n      splitState: SplitTypes.SplitState.Proposed,\n      proposerAddress: _proposerAddress,\n      claimedPeriods: 0\n    });\n\n    allocationAddressList.push(_dest);\n    remainingTokensPerPeriod = remainingTokensPerPeriod - _tokensPerPeriod; // TODO safe-math\n  }\n\n  /**\n   * Approves the split allocation, so it can be claimed after periods\n   *\n   * @param _address - address for the split\n   */\n  function approveSplit(address _approverAddress, address _address) public onlyOwner {\n    require(splitOf[_address].splitState == SplitTypes.SplitState.Proposed);\n    require(splitOf[_address].proposerAddress != _approverAddress);\n    splitOf[_address].splitState = SplitTypes.SplitState.Approved;\n  }\n\n /**\n   * Rejects the split allocation\n   *\n   * @param _address - address for the split to be rejected\n   */\n  function rejectSplit(address _address) public onlyOwner {\n    require(splitOf[_address].splitState == SplitTypes.SplitState.Proposed);\n    splitOf[_address].splitState = SplitTypes.SplitState.Rejected;\n    remainingTokensPerPeriod = remainingTokensPerPeriod + splitOf[_address].tokensPerPeriod;\n  }\n\n  /**\n   * Returns how many tokens are available to mint.\n   *\n   * @param _address - address for whom we are counting tokens\n   */\n  function tokensToMint(address _address) public view returns (uint) {\n    SplitTypes.SplitT storage split = splitOf[_address];\n    if (split.splitState == SplitTypes.SplitState.Approved) {\n      return _tokensToMint(split);\n    }\n    return 0;\n  }\n\n  /*\n   * _tokensToMint returs the total amount of tokens that are ready to be minted.\n   *  From starting date initTimestamp, after each period the split.tokensPerPeriod\n   *  are available to be mint.\n   *  We calculate numberOfPeriods number from (0..periods) and then multiply it\n   *  by the number of tokens per period\n   */\n  function _tokensToMint(SplitTypes.SplitT storage split) private view returns (uint) {\n    // I use math min cause when elapsed periods count is higher than periods\n    // declareted for one split we have to use subtraction from declarated periods.\n    uint numberOfPeriods = SafeMath.min(_periodsElapsed(), periods);\n    return (numberOfPeriods - split.claimedPeriods) * split.tokensPerPeriod;\n  }\n\n  /*\n   * _periodsElapsed returns the amount of periods that passed from initTimestampe\n   */\n  function _periodsElapsed() public view returns(uint) {\n    uint periodsElapsed = (block.timestamp - initTimestamp) / (minutesInPeriod * 1 minutes);\n    return periodsElapsed;\n  }\n  /**\n   * Minting tokens and updating the claimedPeriod value for split\n   *\n   * @param _address - address for whom we minting\n   */\n  function mint(address _address) public onlyOwner returns (uint) {\n    uint tokens = _tokensToMint(splitOf[_address]);\n    splitOf[_address].claimedPeriods = _periodsElapsed();\n    return tokens;\n  }\n\n}\n",
  "sourcePath": "/Users/albertbalinski/crypto/experty/experty-tge/contracts/SplittableTokenAllocation.sol",
  "compiler": {
    "name": "solc",
    "version": "0.4.18+commit.9cf6e910.Emscripten.clang"
  },
  "schemaVersion": "1.0.1",
  "updatedAt": "2018-01-23T09:27:20.065Z"
}